{
  "contractName": "CTAuction",
  "abi": [
    {
      "constant": true,
      "inputs": [],
      "name": "tittyContract",
      "outputs": [
        {
          "name": "",
          "type": "address"
        }
      ],
      "payable": false,
      "stateMutability": "view",
      "type": "function"
    },
    {
      "constant": false,
      "inputs": [
        {
          "name": "_auction",
          "type": "uint256"
        }
      ],
      "name": "auctionEnd",
      "outputs": [],
      "payable": false,
      "stateMutability": "nonpayable",
      "type": "function"
    },
    {
      "constant": false,
      "inputs": [
        {
          "name": "_auction",
          "type": "uint256"
        }
      ],
      "name": "auctionCancel",
      "outputs": [],
      "payable": false,
      "stateMutability": "nonpayable",
      "type": "function"
    },
    {
      "constant": false,
      "inputs": [],
      "name": "withdraw",
      "outputs": [
        {
          "name": "",
          "type": "bool"
        }
      ],
      "payable": false,
      "stateMutability": "nonpayable",
      "type": "function"
    },
    {
      "constant": false,
      "inputs": [
        {
          "name": "_auction",
          "type": "uint256"
        }
      ],
      "name": "bid",
      "outputs": [],
      "payable": true,
      "stateMutability": "payable",
      "type": "function"
    },
    {
      "constant": true,
      "inputs": [],
      "name": "owner",
      "outputs": [
        {
          "name": "",
          "type": "address"
        }
      ],
      "payable": false,
      "stateMutability": "view",
      "type": "function"
    },
    {
      "constant": true,
      "inputs": [],
      "name": "ctWallet",
      "outputs": [
        {
          "name": "",
          "type": "address"
        }
      ],
      "payable": false,
      "stateMutability": "view",
      "type": "function"
    },
    {
      "constant": false,
      "inputs": [
        {
          "name": "_biddingTime",
          "type": "uint256"
        },
        {
          "name": "_titty",
          "type": "uint256"
        },
        {
          "name": "_minimumBid",
          "type": "uint256"
        }
      ],
      "name": "createAuction",
      "outputs": [],
      "payable": false,
      "stateMutability": "nonpayable",
      "type": "function"
    },
    {
      "inputs": [
        {
          "name": "_tittyPurchaseAddress",
          "type": "address"
        },
        {
          "name": "_wallet",
          "type": "address"
        }
      ],
      "payable": false,
      "stateMutability": "nonpayable",
      "type": "constructor"
    },
    {
      "anonymous": false,
      "inputs": [
        {
          "indexed": false,
          "name": "auction",
          "type": "uint256"
        },
        {
          "indexed": false,
          "name": "bidder",
          "type": "address"
        },
        {
          "indexed": false,
          "name": "amount",
          "type": "uint256"
        }
      ],
      "name": "HighestBidIncreased",
      "type": "event"
    },
    {
      "anonymous": false,
      "inputs": [
        {
          "indexed": false,
          "name": "winner",
          "type": "address"
        },
        {
          "indexed": false,
          "name": "amount",
          "type": "uint256"
        }
      ],
      "name": "AuctionEnded",
      "type": "event"
    },
    {
      "anonymous": false,
      "inputs": [
        {
          "indexed": false,
          "name": "auction",
          "type": "uint256"
        }
      ],
      "name": "AuctionCancel",
      "type": "event"
    },
    {
      "anonymous": false,
      "inputs": [
        {
          "indexed": false,
          "name": "auctionId",
          "type": "uint256"
        },
        {
          "indexed": false,
          "name": "titty",
          "type": "uint256"
        }
      ],
      "name": "NewAuctionCreated",
      "type": "event"
    }
  ],
  "bytecode": "0x6060604052341561000f57600080fd5b60405160408061132b8339810160405280805190602001909190805190602001909190505081600460006101000a81548173ffffffffffffffffffffffffffffffffffffffff021916908373ffffffffffffffffffffffffffffffffffffffff16021790555080600260006101000a81548173ffffffffffffffffffffffffffffffffffffffff021916908373ffffffffffffffffffffffffffffffffffffffff16021790555033600160006101000a81548173ffffffffffffffffffffffffffffffffffffffff021916908373ffffffffffffffffffffffffffffffffffffffff1602179055505050611223806101086000396000f30060606040526004361061008e576000357c0100000000000000000000000000000000000000000000000000000000900463ffffffff168063234e52731461009357806332246e9f146100e85780633af826a41461010b5780633ccfd60b1461012e578063454a2ab31461015b5780638da5cb5b14610173578063a564871f146101c8578063cda4beef1461021d575b600080fd5b341561009e57600080fd5b6100a6610252565b604051808273ffffffffffffffffffffffffffffffffffffffff1673ffffffffffffffffffffffffffffffffffffffff16815260200191505060405180910390f35b34156100f357600080fd5b6101096004808035906020019091905050610278565b005b341561011657600080fd5b61012c6004808035906020019091905050610753565b005b341561013957600080fd5b610141610993565b604051808215151515815260200191505060405180910390f35b6101716004808035906020019091905050610abd565b005b341561017e57600080fd5b610186610da0565b604051808273ffffffffffffffffffffffffffffffffffffffff1673ffffffffffffffffffffffffffffffffffffffff16815260200191505060405180910390f35b34156101d357600080fd5b6101db610dc6565b604051808273ffffffffffffffffffffffffffffffffffffffff1673ffffffffffffffffffffffffffffffffffffffff16815260200191505060405180910390f35b341561022857600080fd5b6102506004808035906020019091908035906020019091908035906020019091905050610dec565b005b600460009054906101000a900473ffffffffffffffffffffffffffffffffffffffff1681565b6000803373ffffffffffffffffffffffffffffffffffffffff16600160009054906101000a900473ffffffffffffffffffffffffffffffffffffffff1673ffffffffffffffffffffffffffffffffffffffff161415156102d757600080fd5b6000838154811015156102e657fe5b906000526020600020906007020191508160000154421115151561030957600080fd5b8160040160009054906101000a900460ff1615151561032757600080fd5b60018260040160006101000a81548160ff0219169083151502179055508160008481548110151561035457fe5b9060005260206000209060070201600082015481600001556001820160009054906101000a900473ffffffffffffffffffffffffffffffffffffffff168160010160006101000a81548173ffffffffffffffffffffffffffffffffffffffff021916908373ffffffffffffffffffffffffffffffffffffffff16021790555060028201548160020155600382015481600301556004820160009054906101000a900460ff168160040160006101000a81548160ff021916908315150217905550600582015481600501556006820160009054906101000a900473ffffffffffffffffffffffffffffffffffffffff168160060160006101000a81548173ffffffffffffffffffffffffffffffffffffffff021916908373ffffffffffffffffffffffffffffffffffffffff1602179055509050507fdaec4582d5d9595688c8c98545fdd1c696d41c6aeaeb636737e84ed2f5c00eda8260010160009054906101000a900473ffffffffffffffffffffffffffffffffffffffff168360020154604051808373ffffffffffffffffffffffffffffffffffffffff1673ffffffffffffffffffffffffffffffffffffffff1681526020018281526020019250505060405180910390a1600460009054906101000a900473ffffffffffffffffffffffffffffffffffffffff1673ffffffffffffffffffffffffffffffffffffffff166323b872dd8360060160009054906101000a900473ffffffffffffffffffffffffffffffffffffffff168460010160009054906101000a900473ffffffffffffffffffffffffffffffffffffffff1685600501546040518463ffffffff167c0100000000000000000000000000000000000000000000000000000000028152600401808473ffffffffffffffffffffffffffffffffffffffff1673ffffffffffffffffffffffffffffffffffffffff1681526020018373ffffffffffffffffffffffffffffffffffffffff1673ffffffffffffffffffffffffffffffffffffffff1681526020018281526020019350505050600060405180830381600087803b151561065f57600080fd5b6102c65a03f1151561067057600080fd5b505050610680826002015461109f565b9050600260009054906101000a900473ffffffffffffffffffffffffffffffffffffffff1673ffffffffffffffffffffffffffffffffffffffff166108fc829081150290604051600060405180830381858888f1935050505015156106e457600080fd5b8160060160009054906101000a900473ffffffffffffffffffffffffffffffffffffffff1673ffffffffffffffffffffffffffffffffffffffff166108fc828460020154039081150290604051600060405180830381858888f19350505050151561074e57600080fd5b505050565b6000808281548110151561076357fe5b906000526020600020906007020190508060060160009054906101000a900473ffffffffffffffffffffffffffffffffffffffff1673ffffffffffffffffffffffffffffffffffffffff163373ffffffffffffffffffffffffffffffffffffffff161415156107d157600080fd5b806000015442111515156107e457600080fd5b600081600201541415156107f757600080fd5b60018160040160006101000a81548160ff0219169083151502179055508060008381548110151561082457fe5b9060005260206000209060070201600082015481600001556001820160009054906101000a900473ffffffffffffffffffffffffffffffffffffffff168160010160006101000a81548173ffffffffffffffffffffffffffffffffffffffff021916908373ffffffffffffffffffffffffffffffffffffffff16021790555060028201548160020155600382015481600301556004820160009054906101000a900460ff168160040160006101000a81548160ff021916908315150217905550600582015481600501556006820160009054906101000a900473ffffffffffffffffffffffffffffffffffffffff168160060160006101000a81548173ffffffffffffffffffffffffffffffffffffffff021916908373ffffffffffffffffffffffffffffffffffffffff1602179055509050507f1d30295566a0ab516b4cd02b8875bb7e3c7e83307b7cdeb0966216825ab5e4be826040518082815260200191505060405180910390a15050565b600080600360003373ffffffffffffffffffffffffffffffffffffffff1673ffffffffffffffffffffffffffffffffffffffff1681526020019081526020016000205490506000811115156109e757600080fd5b6000600360003373ffffffffffffffffffffffffffffffffffffffff1673ffffffffffffffffffffffffffffffffffffffff168152602001908152602001600020819055503373ffffffffffffffffffffffffffffffffffffffff166108fc829081150290604051600060405180830381858888f193505050501515610ab45780600360003373ffffffffffffffffffffffffffffffffffffffff1673ffffffffffffffffffffffffffffffffffffffff1681526020019081526020016000208190555060009150610ab9565b600191505b5090565b60008082815481101515610acd57fe5b9060005260206000209060070201905080600001544211151515610af057600080fd5b80600301543410151515610b0357600080fd5b806002015434111515610b1557600080fd5b60008160020154141515610b99578060020154600360008360010160009054906101000a900473ffffffffffffffffffffffffffffffffffffffff1673ffffffffffffffffffffffffffffffffffffffff1673ffffffffffffffffffffffffffffffffffffffff168152602001908152602001600020600082825401925050819055505b338160010160006101000a81548173ffffffffffffffffffffffffffffffffffffffff021916908373ffffffffffffffffffffffffffffffffffffffff16021790555034816002018190555080600083815481101515610bf557fe5b9060005260206000209060070201600082015481600001556001820160009054906101000a900473ffffffffffffffffffffffffffffffffffffffff168160010160006101000a81548173ffffffffffffffffffffffffffffffffffffffff021916908373ffffffffffffffffffffffffffffffffffffffff16021790555060028201548160020155600382015481600301556004820160009054906101000a900460ff168160040160006101000a81548160ff021916908315150217905550600582015481600501556006820160009054906101000a900473ffffffffffffffffffffffffffffffffffffffff168160060160006101000a81548173ffffffffffffffffffffffffffffffffffffffff021916908373ffffffffffffffffffffffffffffffffffffffff1602179055509050507fda0a18da71d8ebd145966339a728fc0d8ccc07c22870d561890d823c515dda6b823334604051808481526020018373ffffffffffffffffffffffffffffffffffffffff1673ffffffffffffffffffffffffffffffffffffffff168152602001828152602001935050505060405180910390a15050565b600160009054906101000a900473ffffffffffffffffffffffffffffffffffffffff1681565b600260009054906101000a900473ffffffffffffffffffffffffffffffffffffffff1681565b6000610df66110b8565b6000600460009054906101000a900473ffffffffffffffffffffffffffffffffffffffff1673ffffffffffffffffffffffffffffffffffffffff16636352211e866000604051602001526040518263ffffffff167c010000000000000000000000000000000000000000000000000000000002815260040180828152602001915050602060405180830381600087803b1515610e9157600080fd5b6102c65a03f11515610ea257600080fd5b5050506040518051905092508273ffffffffffffffffffffffffffffffffffffffff163373ffffffffffffffffffffffffffffffffffffffff16141515610ee857600080fd5b60e0604051908101604052808742018152602001600073ffffffffffffffffffffffffffffffffffffffff168152602001600081526020018581526020016000151581526020018681526020013373ffffffffffffffffffffffffffffffffffffffff168152509150600160008054806001018281610f679190611124565b916000526020600020906007020160008590919091506000820151816000015560208201518160010160006101000a81548173ffffffffffffffffffffffffffffffffffffffff021916908373ffffffffffffffffffffffffffffffffffffffff160217905550604082015181600201556060820151816003015560808201518160040160006101000a81548160ff02191690831515021790555060a0820151816005015560c08201518160060160006101000a81548173ffffffffffffffffffffffffffffffffffffffff021916908373ffffffffffffffffffffffffffffffffffffffff16021790555050500390507f24f013669317636e2c8a27017c7c894b335ced219b5e2e8e127a41dab37724548186604051808381526020018281526020019250505060405180910390a1505050505050565b60006064600a83028115156110b057fe5b049050919050565b60e06040519081016040528060008152602001600073ffffffffffffffffffffffffffffffffffffffff168152602001600081526020016000815260200160001515815260200160008152602001600073ffffffffffffffffffffffffffffffffffffffff1681525090565b815481835581811511611151576007028160070283600052602060002091820191016111509190611156565b5b505050565b6111f491905b808211156111f0576000808201600090556001820160006101000a81549073ffffffffffffffffffffffffffffffffffffffff0219169055600282016000905560038201600090556004820160006101000a81549060ff021916905560058201600090556006820160006101000a81549073ffffffffffffffffffffffffffffffffffffffff02191690555060070161115c565b5090565b905600a165627a7a7230582090b1daa574ce4dc46668d2c1eb6dd2ff0db12480a082af9e278db8b243d4033b0029",
  "source": "pragma solidity ^0.4.18;\n\nimport \"./TittyPurchase.sol\";\n\ncontract CTAuction {\n\n    struct Auction {\n        // Parameters of the auction. Times are either\n        // absolute unix timestamps (seconds since 1970-01-01)\n        // or time periods in seconds.\n        uint auctionEnd;\n\n        // Current state of the auction.\n        address highestBidder;\n        uint highestBid;\n\n        //Minumin Bid Set by the beneficiary\n        uint minimumBid;\n\n        // Set to true at the end, disallows any change\n        bool ended;\n\n        //Titty being Auctioned\n        uint titty;\n\n        //Beneficiary\n        address beneficiary;\n    }\n\n    Auction[] Auctions;\n\n    address public owner; \n    address public ctWallet; \n\n    // Allowed withdrawals of previous bids\n    mapping(address => uint) pendingReturns;\n\n    // CriptoTitty Contract\n    TittyPurchase public tittyContract;\n\n    // Events that will be fired on changes.\n    event HighestBidIncreased(uint auction, address bidder, uint amount);\n    event AuctionEnded(address winner, uint amount);\n    event AuctionCancel(uint auction);\n    event NewAuctionCreated(uint auctionId, uint titty);\n\n    // The following is a so-called natspec comment,\n    // recognizable by the three slashes.\n    // It will be shown when the user is asked to\n    // confirm a transaction.\n\n    /// Create a simple auction with `_biddingTime`\n    /// seconds bidding time on behalf of the\n    /// beneficiary address `_beneficiary`.\n    function CTAuction(\n        address _tittyPurchaseAddress,\n        address _wallet\n    ) public \n    {\n        tittyContract = TittyPurchase(_tittyPurchaseAddress);\n        ctWallet = _wallet;\n        owner = msg.sender; \n    }\n\n    function createAuction(uint _biddingTime, uint _titty, uint _minimumBid) public {\n\n        address ownerAddress = tittyContract.ownerOf(_titty);\n        require(msg.sender == ownerAddress);\n\n        Auction memory auction = Auction({\n            auctionEnd: now + _biddingTime,\n            titty: _titty,\n            beneficiary: msg.sender,\n            highestBidder: 0,\n            highestBid: 0,\n            ended: false,\n            minimumBid: _minimumBid\n        });\n\n        uint auctionId = Auctions.push(auction) - 1;\n        NewAuctionCreated(auctionId, _titty);\n    }\n\n    /// Bid on an auction with the value sent\n    /// together with this transaction.\n    /// The value will only be refunded if the\n    /// auction is not won.\n    function bid(uint _auction) public payable {\n\n        Auction storage auction = Auctions[_auction];\n\n        // Revert the call if the bidding\n        // period is over.\n        require(now <= auction.auctionEnd);\n\n        // Revert the call value is less than the minimumBid.\n        require(msg.value >= auction.minimumBid);\n\n        // If the bid is not higher, send the\n        // money back.\n        require(msg.value > auction.highestBid);\n\n        if (auction.highestBid != 0) {\n            // Sending back the money by simply using\n            // highestBidder.send(highestBid) is a security risk\n            // because it could execute an untrusted contract.\n            // It is always safer to let the recipients\n            // withdraw their money themselves.\n            pendingReturns[auction.highestBidder] += auction.highestBid;\n        }\n        auction.highestBidder = msg.sender;\n        auction.highestBid = msg.value;\n        Auctions[_auction] = auction;\n        HighestBidIncreased(_auction, msg.sender, msg.value);\n    }\n\n    /// Withdraw a bid that was overbid.\n    function withdraw() public returns (bool) {\n        uint amount = pendingReturns[msg.sender];\n        require(amount > 0);\n        // It is important to set this to zero because the recipient\n        // can call this function again as part of the receiving call\n        // before `send` returns.\n        pendingReturns[msg.sender] = 0;\n\n        if (!msg.sender.send(amount)) {\n            // No need to call throw here, just reset the amount owing\n            pendingReturns[msg.sender] = amount;\n            return false;\n        }\n        \n        return true;\n    }\n\n    function auctionCancel(uint _auction) public {\n\n        Auction storage auction = Auctions[_auction];\n\n        //has to be the beneficiary\n        require(msg.sender == auction.beneficiary);\n\n        //Auction Ended\n        require(now <= auction.auctionEnd);\n\n        //has no maxbid \n        require(auction.highestBid == 0);\n\n        auction.ended = true;\n        Auctions[_auction] = auction;\n        AuctionCancel(_auction);\n\n    }\n\n    /// End the auction and send the highest bid\n    /// to the beneficiary and 10% to CT.\n    function auctionEnd(uint _auction) public {\n\n        // Just cryptotitties CEO can end the auction\n        require (owner == msg.sender);\n\n        Auction storage auction = Auctions[_auction];\n\n        require(now <= auction.auctionEnd); // auction has ended\n        require(!auction.ended); // this function has already been called\n\n        // End Auction\n        auction.ended = true;\n        Auctions[_auction] = auction;\n        AuctionEnded(auction.highestBidder, auction.highestBid);\n\n        // Send the Funds\n        tittyContract.transferFrom(auction.beneficiary, auction.highestBidder, auction.titty);\n        uint fee = calculateFee(auction.highestBid);\n        ctWallet.transfer(fee);\n        auction.beneficiary.transfer(auction.highestBid-fee);\n\n    }\n\n    function calculateFee (uint256 _price) internal pure returns(uint) {\n        return (_price * 10)/100;\n    }\n}",
  "sourcePath": "/Users/rogerssampaio/Sites/cryptotitties/contracts/CTAuction.sol",
  "compiler": {
    "name": "solc",
    "version": "0.4.18+commit.9cf6e910.Emscripten.clang"
  },
  "schemaVersion": "1.0.1",
  "updatedAt": "2018-03-09T13:48:07.323Z"
}