{
  "contractName": "CTBoatGame",
  "abi": [
    {
      "constant": true,
      "inputs": [],
      "name": "tittyContract",
      "outputs": [
        {
          "name": "",
          "type": "address"
        }
      ],
      "payable": false,
      "stateMutability": "view",
      "type": "function"
    },
    {
      "constant": true,
      "inputs": [
        {
          "name": "",
          "type": "uint256"
        }
      ],
      "name": "tittyVotes",
      "outputs": [
        {
          "name": "",
          "type": "uint256"
        }
      ],
      "payable": false,
      "stateMutability": "view",
      "type": "function"
    },
    {
      "constant": false,
      "inputs": [
        {
          "name": "_tittyId",
          "type": "uint256"
        },
        {
          "name": "_amount",
          "type": "uint256"
        }
      ],
      "name": "doVote",
      "outputs": [],
      "payable": true,
      "stateMutability": "payable",
      "type": "function"
    },
    {
      "constant": true,
      "inputs": [
        {
          "name": "_tittyId",
          "type": "uint256"
        }
      ],
      "name": "getNumberOfVotes",
      "outputs": [
        {
          "name": "",
          "type": "uint256"
        },
        {
          "name": "",
          "type": "uint256"
        }
      ],
      "payable": false,
      "stateMutability": "view",
      "type": "function"
    },
    {
      "inputs": [
        {
          "name": "_wallet",
          "type": "address"
        },
        {
          "name": "_charity",
          "type": "address"
        }
      ],
      "payable": false,
      "stateMutability": "nonpayable",
      "type": "constructor"
    },
    {
      "payable": false,
      "stateMutability": "nonpayable",
      "type": "fallback"
    }
  ],
  "bytecode": "0x6060604052666a94d74f430000600255341561001a57600080fd5b6040516040806106018339810160405280805190602001909190805190602001909190505081600160006101000a81548173ffffffffffffffffffffffffffffffffffffffff021916908373ffffffffffffffffffffffffffffffffffffffff160217905550806000806101000a81548173ffffffffffffffffffffffffffffffffffffffff021916908373ffffffffffffffffffffffffffffffffffffffff1602179055505050610530806100d16000396000f300606060405260043610610062576000357c0100000000000000000000000000000000000000000000000000000000900463ffffffff168063234e52731461006f57806363e9c30f146100c45780636ece7d88146100fb578063c71f42531461011c575b341561006d57600080fd5b005b341561007a57600080fd5b61008261015a565b604051808273ffffffffffffffffffffffffffffffffffffffff1673ffffffffffffffffffffffffffffffffffffffff16815260200191505060405180910390f35b34156100cf57600080fd5b6100e56004808035906020019091905050610180565b6040518082815260200191505060405180910390f35b61011a6004808035906020019091908035906020019091905050610198565b005b341561012757600080fd5b61013d600480803590602001909190505061032b565b604051808381526020018281526020019250505060405180910390f35b600360009054906101000a900473ffffffffffffffffffffffffffffffffffffffff1681565b60056020528060005260406000206000915090505481565b6000806000806101a78561037b565b935060003410806101b85750833414155b156101c257600080fd5b600560008781526020019081526020016000205492506000831415610208576101ec868686610389565b6005600088815260200190815260200160002081905550610253565b60048381548110151561021757fe5b906000526020600020906002020191506102528260408051908101604052908160008201548152602001600182015481525050848787610415565b5b61025c34610470565b90506000809054906101000a900473ffffffffffffffffffffffffffffffffffffffff1673ffffffffffffffffffffffffffffffffffffffff166108fc829081150290604051600060405180830381858888f1935050505015156102bf57600080fd5b600160009054906101000a900473ffffffffffffffffffffffffffffffffffffffff1673ffffffffffffffffffffffffffffffffffffffff166108fc8234039081150290604051600060405180830381858888f19350505050151561032357600080fd5b505050505050565b6000806000806005600086815260200190815260200160002054915060048281548110151561035657fe5b9060005260206000209060020201905080600101548160000154935093505050915091565b600081600254029050919050565b6000610393610489565b600060408051908101604052808581526020018681525091506001600480548060010182816103c291906104a3565b916000526020600020906002020160008590919091506000820151816000015560208201518160010155505003905080600560008881526020019081526020016000208190555080925050509392505050565b80846000015101846000018181525050818460200151018460200181815250508360048481548110151561044557fe5b9060005260206000209060020201600082015181600001556020820151816001015590505050505050565b600060646046830281151561048157fe5b049050919050565b604080519081016040528060008152602001600081525090565b8154818355818115116104d0576002028160020283600052602060002091820191016104cf91906104d5565b5b505050565b61050191905b808211156104fd576000808201600090556001820160009055506002016104db565b5090565b905600a165627a7a723058200bc2c7d359681ec371e4d4be435127681c392bb67392f82aa1b3f0cac01e1ba50029",
  "source": "pragma solidity ^0.4.18;\n\nimport \"./ERC721Draft.sol\";\n\ncontract CTBoatGame {\n\n    address private charity;\n    address private wallet;\n\n    uint256 votePrice = 30 finney;\n\n    ERC721 public tittyContract;\n\n    struct Vote {\n        uint256 totalRaised;\n        uint256 votes;\n    }\n\n    Vote[] votes;\n    mapping (uint256 => uint256) public tittyVotes;\n    \n    function CTBoatGame(address _wallet, address _charity) public {\n        wallet = _wallet;\n        charity = _charity;\n    }\n\n    function doVote (uint256 _tittyId, uint256 _amount) public payable {\n        \n        uint256 total = calculatePrice(_amount);\n        if (msg.value < 0 || msg.value != total)\n            revert();\n\n        uint256 voteId = tittyVotes[_tittyId];\n        if (voteId == 0) {\n            tittyVotes[_tittyId] = _createVote(_tittyId, _amount, total);\n        } else {\n            Vote storage vote = votes[voteId];\n            _addVote(vote, voteId, _amount, total);\n        }\n\n        uint256 fee = calculateCharityFee(msg.value);\n        charity.transfer(fee);\n        wallet.transfer(msg.value - fee);\n\n    }\n\n    function calculatePrice(uint256 _amount) internal returns (uint) {\n        return votePrice * _amount;\n    }\n\n    function _createVote (uint256 _tittyId, uint256 _amount, uint256 _value) internal returns (uint) {\n\n        Vote memory newVote = Vote({\n            totalRaised: _value,\n            votes: _amount\n        });\n\n        uint256 voteId = votes.push(newVote) - 1;\n        tittyVotes[_tittyId] = voteId;\n\n        return voteId;\n    }\n\n    function _addVote (Vote vote, uint256 voteId, uint256 _amount, uint256 _value) internal {\n\n        vote.totalRaised = vote.totalRaised + _value;\n        vote.votes = vote.votes + _amount;\n        votes[voteId] = vote;\n    }\n\n    function getNumberOfVotes (uint256 _tittyId) public view returns (uint256, uint256) {\n\n        uint256 voteId = tittyVotes[_tittyId];\n        Vote storage vote = votes[voteId];\n\n        return (vote.votes, vote.totalRaised);\n\n    }\n\n    function calculateCharityFee (uint256 _price) internal pure returns(uint) {\n        return (_price * 70)/100;\n    }\n\n    function() external {}\n\n\n}",
  "sourcePath": "/Users/rogerssampaio/Sites/cryptotitties/contracts/CTBoatGame.sol",
  "compiler": {
    "name": "solc",
    "version": "0.4.18+commit.9cf6e910.Emscripten.clang"
  },
  "schemaVersion": "1.0.1",
  "updatedAt": "2018-01-04T21:06:48.691Z"
}