{
  "contractName": "CTBoatGame",
  "abi": [
    {
      "constant": true,
      "inputs": [],
      "name": "tittyContract",
      "outputs": [
        {
          "name": "",
          "type": "address"
        }
      ],
      "payable": false,
      "stateMutability": "view",
      "type": "function"
    },
    {
      "constant": true,
      "inputs": [
        {
          "name": "",
          "type": "uint256"
        }
      ],
      "name": "tittyVotes",
      "outputs": [
        {
          "name": "",
          "type": "uint256"
        }
      ],
      "payable": false,
      "stateMutability": "view",
      "type": "function"
    },
    {
      "constant": false,
      "inputs": [
        {
          "name": "_tittyId",
          "type": "uint256"
        },
        {
          "name": "_amount",
          "type": "uint256"
        }
      ],
      "name": "doVote",
      "outputs": [],
      "payable": true,
      "stateMutability": "payable",
      "type": "function"
    },
    {
      "constant": true,
      "inputs": [
        {
          "name": "id",
          "type": "uint256"
        }
      ],
      "name": "getOwner",
      "outputs": [
        {
          "name": "owner",
          "type": "address"
        }
      ],
      "payable": false,
      "stateMutability": "view",
      "type": "function"
    },
    {
      "constant": true,
      "inputs": [
        {
          "name": "_tittyId",
          "type": "uint256"
        }
      ],
      "name": "getNumberOfVotes",
      "outputs": [
        {
          "name": "",
          "type": "uint256"
        },
        {
          "name": "",
          "type": "uint256"
        }
      ],
      "payable": false,
      "stateMutability": "view",
      "type": "function"
    },
    {
      "constant": false,
      "inputs": [
        {
          "name": "_charity",
          "type": "address"
        }
      ],
      "name": "transferToCharity",
      "outputs": [],
      "payable": false,
      "stateMutability": "nonpayable",
      "type": "function"
    },
    {
      "inputs": [
        {
          "name": "_wallet",
          "type": "address"
        },
        {
          "name": "_tittyPurchaseAddress",
          "type": "address"
        },
        {
          "name": "_endDate",
          "type": "uint256"
        }
      ],
      "payable": false,
      "stateMutability": "nonpayable",
      "type": "constructor"
    },
    {
      "payable": false,
      "stateMutability": "nonpayable",
      "type": "fallback"
    },
    {
      "anonymous": false,
      "inputs": [
        {
          "indexed": false,
          "name": "voteId",
          "type": "uint256"
        },
        {
          "indexed": false,
          "name": "titty",
          "type": "uint256"
        }
      ],
      "name": "Voted",
      "type": "event"
    }
  ],
  "bytecode": "0x6060604052660aa87bee538000600355341561001a57600080fd5b60405160608061098983398101604052808051906020019091908051906020019091908051906020019091905050826000806101000a81548173ffffffffffffffffffffffffffffffffffffffff021916908373ffffffffffffffffffffffffffffffffffffffff16021790555033600160006101000a81548173ffffffffffffffffffffffffffffffffffffffff021916908373ffffffffffffffffffffffffffffffffffffffff1602179055508060028190555081600460006101000a81548173ffffffffffffffffffffffffffffffffffffffff021916908373ffffffffffffffffffffffffffffffffffffffff160217905550505050610866806101236000396000f300606060405260043610610078576000357c0100000000000000000000000000000000000000000000000000000000900463ffffffff168063234e52731461008557806363e9c30f146100da5780636ece7d8814610111578063c41a360a14610132578063c71f425314610195578063fb101581146101d3575b341561008357600080fd5b005b341561009057600080fd5b61009861020c565b604051808273ffffffffffffffffffffffffffffffffffffffff1673ffffffffffffffffffffffffffffffffffffffff16815260200191505060405180910390f35b34156100e557600080fd5b6100fb6004808035906020019091905050610232565b6040518082815260200191505060405180910390f35b610130600480803590602001909190803590602001909190505061024a565b005b341561013d57600080fd5b61015360048080359060200190919050506104d5565b604051808273ffffffffffffffffffffffffffffffffffffffff1673ffffffffffffffffffffffffffffffffffffffff16815260200191505060405180910390f35b34156101a057600080fd5b6101b66004808035906020019091905050610592565b604051808381526020018281526020019250505060405180910390f35b34156101de57600080fd5b61020a600480803573ffffffffffffffffffffffffffffffffffffffff169060200190919050506105e2565b005b600460009054906101000a900473ffffffffffffffffffffffffffffffffffffffff1681565b60066020528060005260406000206000915090505481565b6000806000806000806002544210151561026357600080fd5b61026c87610698565b9550600034108061027d5750853414155b1561028757600080fd5b6006600089815260200190815260200160002054945060008514156102d0576102b18888886106a6565b945084600660008a81526020019081526020016000208190555061031b565b6005858154811015156102df57fe5b9060005260206000209060020201935061031a8460408051908101604052908160008201548152602001600182015481525050868989610732565b5b7f84a5508ca0d85b42a876e75a9126f3ae7b43617ce60b170bf8805d34630bc6548589604051808381526020018281526020019250505060405180910390a1600460009054906101000a900473ffffffffffffffffffffffffffffffffffffffff1673ffffffffffffffffffffffffffffffffffffffff16636352211e896000604051602001526040518263ffffffff167c010000000000000000000000000000000000000000000000000000000002815260040180828152602001915050602060405180830381600087803b15156103f357600080fd5b6102c65a03f1151561040457600080fd5b5050506040518051905092506104193461078d565b9150610424346107a6565b90508273ffffffffffffffffffffffffffffffffffffffff166108fc829081150290604051600060405180830381858888f19350505050151561046657600080fd5b6000809054906101000a900473ffffffffffffffffffffffffffffffffffffffff1673ffffffffffffffffffffffffffffffffffffffff166108fc82840134039081150290604051600060405180830381858888f1935050505015156104cb57600080fd5b5050505050505050565b6000600460009054906101000a900473ffffffffffffffffffffffffffffffffffffffff1673ffffffffffffffffffffffffffffffffffffffff16636352211e836000604051602001526040518263ffffffff167c010000000000000000000000000000000000000000000000000000000002815260040180828152602001915050602060405180830381600087803b151561057057600080fd5b6102c65a03f1151561058157600080fd5b505050604051805190509050919050565b600080600080600660008681526020019081526020016000205491506005828154811015156105bd57fe5b9060005260206000209060020201905080600101548160000154935093505050915091565b600160009054906101000a900473ffffffffffffffffffffffffffffffffffffffff1673ffffffffffffffffffffffffffffffffffffffff163373ffffffffffffffffffffffffffffffffffffffff1614151561063e57600080fd5b8073ffffffffffffffffffffffffffffffffffffffff166108fc3073ffffffffffffffffffffffffffffffffffffffff16319081150290604051600060405180830381858888f19350505050151561069557600080fd5b50565b600081600354029050919050565b60006106b06107bf565b600060408051908101604052808581526020018681525091506001600580548060010182816106df91906107d9565b916000526020600020906002020160008590919091506000820151816000015560208201518160010155505003905080600660008881526020019081526020016000208190555080925050509392505050565b80846000015101846000018181525050818460200151018460200181815250508360058481548110151561076257fe5b9060005260206000209060020201600082015181600001556020820151816001015590505050505050565b600060646046830281151561079e57fe5b049050919050565b60006064601983028115156107b757fe5b049050919050565b604080519081016040528060008152602001600081525090565b81548183558181151161080657600202816002028360005260206000209182019101610805919061080b565b5b505050565b61083791905b8082111561083357600080820160009055600182016000905550600201610811565b5090565b905600a165627a7a7230582002f30f6c13ad4287065647189773e287bcf6ab0f2c131622dbf23d9b75dfe2c70029",
  "source": "pragma solidity ^0.4.18;\n\nimport \"./TittyPurchase.sol\";\n\ncontract CTBoatGame {\n\n    address private wallet;\n    address private contractOwner;\n    uint endDate;\n\n    uint256 votePrice = 3 finney;\n\n    TittyPurchase public tittyContract;\n\n    struct Vote {\n        uint256 totalRaised;\n        uint256 votes;\n    }\n\n    Vote[] votes;\n    mapping (uint256 => uint256) public tittyVotes;\n\n    event Voted(uint voteId, uint titty);\n    \n    function CTBoatGame(address _wallet, address _tittyPurchaseAddress, uint _endDate) public {\n        wallet = _wallet;\n        contractOwner = msg.sender;\n        endDate = _endDate;\n        tittyContract = TittyPurchase(_tittyPurchaseAddress);\n        \n        \n    }\n\n    function doVote (uint256 _tittyId, uint256 _amount) public payable {\n\n        require (now < endDate);\n        \n        uint256 total = calculatePrice(_amount);\n        if (msg.value < 0 || msg.value != total)\n            revert();\n\n        uint256 voteId = tittyVotes[_tittyId];\n        if (voteId == 0) {\n            voteId = _createVote(_tittyId, _amount, total);\n            tittyVotes[_tittyId] = voteId;\n        } else {\n            Vote storage vote = votes[voteId];\n            _addVote(vote, voteId, _amount, total);\n        }\n\n        Voted(voteId, _tittyId);\n        \n        address ownerAddress = tittyContract.ownerOf(_tittyId);\n\n        uint256 charityFee = calculateCharityFee(msg.value);\n        uint256 ownerFee = calculateOwnerFee(msg.value);\n        ownerAddress.transfer(ownerFee);\n        wallet.transfer(msg.value - (charityFee + ownerFee));\n\n    }\n\n    function transferToCharity(address _charity) public {\n        \n        require(msg.sender == contractOwner);\n        _charity.transfer(this.balance);\n\n    }\n\n    function calculatePrice(uint256 _amount) internal view returns (uint) {\n        return votePrice * _amount;\n    }\n\n    function getOwner(uint256 id) public view returns (address owner) {\n        owner = tittyContract.ownerOf(id);\n    }\n\n    function _createVote (uint256 _tittyId, uint256 _amount, uint256 _value) internal returns (uint) {\n\n        Vote memory newVote = Vote({\n            totalRaised: _value,\n            votes: _amount\n        });\n\n        uint256 voteId = votes.push(newVote) - 1;\n        tittyVotes[_tittyId] = voteId;\n\n        return voteId;\n    }\n\n    function _addVote (Vote vote, uint256 voteId, uint256 _amount, uint256 _value) internal {\n\n        vote.totalRaised = vote.totalRaised + _value;\n        vote.votes = vote.votes + _amount;\n        votes[voteId] = vote;\n\n    }\n\n    function getNumberOfVotes (uint256 _tittyId) public view returns (uint256, uint256) {\n\n        uint256 voteId = tittyVotes[_tittyId];\n        Vote storage vote = votes[voteId];\n\n        return (vote.votes, vote.totalRaised);\n\n    }\n\n    function calculateCharityFee (uint256 _price) internal pure returns(uint) {\n        return (_price * 70)/100;\n    }\n    \n    function calculateOwnerFee (uint256 _price) internal pure returns(uint) {\n        return (_price * 25)/100;\n    }\n\n    function() external {}\n\n\n}",
  "sourcePath": "/Users/rogerssampaio/Sites/cryptotitties/contracts/CTBoatGame.sol",
  "compiler": {
    "name": "solc",
    "version": "0.4.18+commit.9cf6e910.Emscripten.clang"
  },
  "schemaVersion": "1.0.1",
  "updatedAt": "2018-03-09T13:48:07.299Z"
}