{
  "contractName": "TittyOwnership",
  "abi": [
    {
      "constant": true,
      "inputs": [
        {
          "name": "_aId",
          "type": "uint256"
        }
      ],
      "name": "name",
      "outputs": [
        {
          "name": "",
          "type": "string"
        },
        {
          "name": "name",
          "type": "string"
        },
        {
          "name": "price",
          "type": "uint256"
        },
        {
          "name": "active",
          "type": "bool"
        }
      ],
      "payable": false,
      "stateMutability": "view",
      "type": "function"
    },
    {
      "constant": false,
      "inputs": [
        {
          "name": "_to",
          "type": "address"
        },
        {
          "name": "_tokenId",
          "type": "uint256"
        }
      ],
      "name": "approve",
      "outputs": [
        {
          "name": "",
          "type": "string"
        }
      ],
      "payable": false,
      "stateMutability": "nonpayable",
      "type": "function"
    },
    {
      "constant": true,
      "inputs": [
        {
          "name": "_to",
          "type": "address"
        },
        {
          "name": "_tokenId",
          "type": "uint256"
        }
      ],
      "name": "implementsERC721",
      "outputs": [
        {
          "name": "",
          "type": "bool"
        }
      ],
      "payable": false,
      "stateMutability": "pure",
      "type": "function"
    },
    {
      "constant": true,
      "inputs": [],
      "name": "totalSupply",
      "outputs": [
        {
          "name": "total",
          "type": "uint256"
        }
      ],
      "payable": false,
      "stateMutability": "view",
      "type": "function"
    },
    {
      "constant": false,
      "inputs": [
        {
          "name": "_from",
          "type": "address"
        },
        {
          "name": "_to",
          "type": "address"
        },
        {
          "name": "_tokenId",
          "type": "uint256"
        }
      ],
      "name": "transferFrom",
      "outputs": [
        {
          "name": "total",
          "type": "uint256"
        }
      ],
      "payable": false,
      "stateMutability": "nonpayable",
      "type": "function"
    },
    {
      "constant": true,
      "inputs": [
        {
          "name": "",
          "type": "uint256"
        },
        {
          "name": "_to",
          "type": "address"
        },
        {
          "name": "_tokenId",
          "type": "uint256"
        }
      ],
      "name": "tittyIndexToOwner",
      "outputs": [
        {
          "name": "",
          "type": "address"
        }
      ],
      "payable": false,
      "stateMutability": "view",
      "type": "function"
    },
    {
      "constant": true,
      "inputs": [
        {
          "name": "_tittyId",
          "type": "uint256"
        },
        {
          "name": "_aId",
          "type": "uint256"
        }
      ],
      "name": "getAccessory",
      "outputs": [
        {
          "name": "id",
          "type": "uint256"
        },
        {
          "name": "name",
          "type": "string"
        },
        {
          "name": "price",
          "type": "uint256"
        },
        {
          "name": "active",
          "type": "bool"
        }
      ],
      "payable": false,
      "stateMutability": "view",
      "type": "function"
    },
    {
      "constant": true,
      "inputs": [
        {
          "name": "_tokenId",
          "type": "uint256"
        }
      ],
      "name": "ownerOf",
      "outputs": [
        {
          "name": "owner",
          "type": "address"
        }
      ],
      "payable": false,
      "stateMutability": "view",
      "type": "function"
    },
    {
      "constant": true,
      "inputs": [
        {
          "name": "",
          "type": "uint256"
        }
      ],
      "name": "tittyApproveIndex",
      "outputs": [
        {
          "name": "",
          "type": "address"
        }
      ],
      "payable": false,
      "stateMutability": "view",
      "type": "function"
    },
    {
      "constant": true,
      "inputs": [
        {
          "name": "_owner",
          "type": "address"
        }
      ],
      "name": "balanceOf",
      "outputs": [
        {
          "name": "balance",
          "type": "uint256"
        }
      ],
      "payable": false,
      "stateMutability": "view",
      "type": "function"
    },
    {
      "constant": true,
      "inputs": [
        {
          "name": "_tittyId",
          "type": "uint256"
        }
      ],
      "name": "totalAccessories",
      "outputs": [
        {
          "name": "",
          "type": "uint256"
        }
      ],
      "payable": false,
      "stateMutability": "view",
      "type": "function"
    },
    {
      "constant": true,
      "inputs": [],
      "name": "symbol",
      "outputs": [
        {
          "name": "",
          "type": "string"
        }
      ],
      "payable": false,
      "stateMutability": "view",
      "type": "function"
    },
    {
      "constant": true,
      "inputs": [
        {
          "name": "",
          "type": "address"
        }
      ],
      "name": "ownerTittiesCount",
      "outputs": [
        {
          "name": "",
          "type": "uint256"
        }
      ],
      "payable": false,
      "stateMutability": "view",
      "type": "function"
    },
    {
      "constant": false,
      "inputs": [
        {
          "name": "_to",
          "type": "address"
        },
        {
          "name": "_tokenId",
          "type": "uint256"
        }
      ],
      "name": "transfer",
      "outputs": [],
      "payable": false,
      "stateMutability": "nonpayable",
      "type": "function"
    },
    {
      "anonymous": false,
      "inputs": [
        {
          "indexed": true,
          "name": "from",
          "type": "address"
        },
        {
          "indexed": true,
          "name": "to",
          "type": "address"
        },
        {
          "indexed": true,
          "name": "tokenId",
          "type": "uint256"
        }
      ],
      "name": "Transfer",
      "type": "event"
    },
    {
      "anonymous": false,
      "inputs": [
        {
          "indexed": true,
          "name": "owner",
          "type": "address"
        },
        {
          "indexed": true,
          "name": "approved",
          "type": "address"
        },
        {
          "indexed": true,
          "name": "tokenId",
          "type": "uint256"
        }
      ],
      "name": "Approval",
      "type": "event"
    },
    {
      "anonymous": false,
      "inputs": [
        {
          "indexed": true,
          "name": "from",
          "type": "address"
        },
        {
          "indexed": true,
          "name": "to",
          "type": "address"
        }
      ],
      "name": "Transfer",
      "type": "event"
    },
    {
      "anonymous": false,
      "inputs": [
        {
          "indexed": true,
          "name": "from",
          "type": "address"
        },
        {
          "indexed": false,
          "name": "tittyId",
          "type": "uint256"
        },
        {
          "indexed": false,
          "name": "wpId",
          "type": "uint256"
        }
      ],
      "name": "Creation",
      "type": "event"
    },
    {
      "anonymous": false,
      "inputs": [
        {
          "indexed": false,
          "name": "tittyId",
          "type": "uint256"
        },
        {
          "indexed": false,
          "name": "accessoryId",
          "type": "uint256"
        }
      ],
      "name": "AddAccessory",
      "type": "event"
    }
  ],
  "bytecode": "0x60606040526040805190810160405280600c81526020017f43727970746f54697474657300000000000000000000000000000000000000008152506005908051906020019061004f9291906100ac565b506040805190810160405280600281526020017f43540000000000000000000000000000000000000000000000000000000000008152506006908051906020019061009b9291906100ac565b5034156100a757600080fd5b610151565b828054600181600116156101000203166002900490600052602060002090601f016020900481019282601f106100ed57805160ff191683800117855561011b565b8280016001018555821561011b579182015b8281111561011a5782518255916020019190600101906100ff565b5b509050610128919061012c565b5090565b61014e91905b8082111561014a576000816000905550600101610132565b5090565b90565b610e29806101606000396000f3006060604052600436106100d0576000357c0100000000000000000000000000000000000000000000000000000000900463ffffffff16806306fdde03146100d5578063095ea7b3146101635780631051db34146101a557806318160ddd146101d257806323b872dd146101fb578063396878701461025c5780634a6cfca7146102bf5780636352211e1461037d5780636c5eb382146103e057806370a08231146104435780637465df261461049057806395d89b41146104c75780639743246514610555578063a9059cbb146105a2575b600080fd5b34156100e057600080fd5b6100e86105e4565b6040518080602001828103825283818151815260200191508051906020019080838360005b8381101561012857808201518184015260208101905061010d565b50505050905090810190601f1680156101555780820380516001836020036101000a031916815260200191505b509250505060405180910390f35b341561016e57600080fd5b6101a3600480803573ffffffffffffffffffffffffffffffffffffffff16906020019091908035906020019091905050610682565b005b34156101b057600080fd5b6101b8610700565b604051808215151515815260200191505060405180910390f35b34156101dd57600080fd5b6101e5610709565b6040518082815260200191505060405180910390f35b341561020657600080fd5b61025a600480803573ffffffffffffffffffffffffffffffffffffffff1690602001909190803573ffffffffffffffffffffffffffffffffffffffff16906020019091908035906020019091905050610719565b005b341561026757600080fd5b61027d6004808035906020019091905050610753565b604051808273ffffffffffffffffffffffffffffffffffffffff1673ffffffffffffffffffffffffffffffffffffffff16815260200191505060405180910390f35b34156102ca57600080fd5b6102e96004808035906020019091908035906020019091905050610786565b604051808581526020018060200184815260200183151515158152602001828103825285818151815260200191508051906020019080838360005b8381101561033f578082015181840152602081019050610324565b50505050905090810190601f16801561036c5780820380516001836020036101000a031916815260200191505b509550505050505060405180910390f35b341561038857600080fd5b61039e60048080359060200190919050506108c1565b604051808273ffffffffffffffffffffffffffffffffffffffff1673ffffffffffffffffffffffffffffffffffffffff16815260200191505060405180910390f35b34156103eb57600080fd5b610401600480803590602001909190505061093a565b604051808273ffffffffffffffffffffffffffffffffffffffff1673ffffffffffffffffffffffffffffffffffffffff16815260200191505060405180910390f35b341561044e57600080fd5b61047a600480803573ffffffffffffffffffffffffffffffffffffffff1690602001909190505061096d565b6040518082815260200191505060405180910390f35b341561049b57600080fd5b6104b160048080359060200190919050506109b6565b6040518082815260200191505060405180910390f35b34156104d257600080fd5b6104da6109e8565b6040518080602001828103825283818151815260200191508051906020019080838360005b8381101561051a5780820151818401526020810190506104ff565b50505050905090810190601f1680156105475780820380516001836020036101000a031916815260200191505b509250505060405180910390f35b341561056057600080fd5b61058c600480803573ffffffffffffffffffffffffffffffffffffffff16906020019091905050610a86565b6040518082815260200191505060405180910390f35b34156105ad57600080fd5b6105e2600480803573ffffffffffffffffffffffffffffffffffffffff16906020019091908035906020019091905050610a9e565b005b60058054600181600116156101000203166002900480601f01602080910402602001604051908101604052809291908181526020018280546001816001161561010002031660029004801561067a5780601f1061064f5761010080835404028352916020019161067a565b820191906000526020600020905b81548152906001019060200180831161065d57829003601f168201915b505050505081565b61068c3382610afe565b151561069757600080fd5b6106a18183610b6a565b808273ffffffffffffffffffffffffffffffffffffffff163373ffffffffffffffffffffffffffffffffffffffff167f8c5be1e5ebec7d5bd14f71427d1e84f3dd0314c0f7b2291e5b200ac8c7c3b92560405160405180910390a45050565b60006001905090565b6000600160008054905003905090565b6107233382610bc0565b151561072e57600080fd5b6107388382610afe565b151561074357600080fd5b61074e838383610c2c565b505050565b60026020528060005260406000206000915054906101000a900473ffffffffffffffffffffffffffffffffffffffff1681565b6000610790610de9565b600080600080600080898154811015156107a657fe5b9060005260206000209060070201925082600501888154811015156107c757fe5b90600052602060002090015491506001828154811015156107e457fe5b9060005260206000209060040201905080600001549650806001018054600181600116156101000203166002900480601f0160208091040260200160405190810160405280929190818152602001828054600181600116156101000203166002900480156108935780601f1061086857610100808354040283529160200191610893565b820191906000526020600020905b81548152906001019060200180831161087657829003601f168201915b50505050509550806002015494508060030160009054906101000a900460ff16935050505092959194509250565b60006002600083815260200190815260200160002060009054906101000a900473ffffffffffffffffffffffffffffffffffffffff169050600073ffffffffffffffffffffffffffffffffffffffff168173ffffffffffffffffffffffffffffffffffffffff161415151561093557600080fd5b919050565b60046020528060005260406000206000915054906101000a900473ffffffffffffffffffffffffffffffffffffffff1681565b6000600360008373ffffffffffffffffffffffffffffffffffffffff1673ffffffffffffffffffffffffffffffffffffffff168152602001908152602001600020549050919050565b6000806000838154811015156109c857fe5b906000526020600020906007020190508060050180549050915050919050565b60068054600181600116156101000203166002900480601f016020809104026020016040519081016040528092919081815260200182805460018160011615610100020316600290048015610a7e5780601f10610a5357610100808354040283529160200191610a7e565b820191906000526020600020905b815481529060010190602001808311610a6157829003601f168201915b505050505081565b60036020528060005260406000206000915090505481565b600073ffffffffffffffffffffffffffffffffffffffff168273ffffffffffffffffffffffffffffffffffffffff1614151515610ada57600080fd5b610ae43382610afe565b1515610aef57600080fd5b610afa338383610c2c565b5050565b60008273ffffffffffffffffffffffffffffffffffffffff166002600084815260200190815260200160002060009054906101000a900473ffffffffffffffffffffffffffffffffffffffff1673ffffffffffffffffffffffffffffffffffffffff1614905092915050565b806004600084815260200190815260200160002060006101000a81548173ffffffffffffffffffffffffffffffffffffffff021916908373ffffffffffffffffffffffffffffffffffffffff1602179055505050565b60008273ffffffffffffffffffffffffffffffffffffffff166004600084815260200190815260200160002060009054906101000a900473ffffffffffffffffffffffffffffffffffffffff1673ffffffffffffffffffffffffffffffffffffffff1614905092915050565b600360008373ffffffffffffffffffffffffffffffffffffffff1673ffffffffffffffffffffffffffffffffffffffff16815260200190815260200160002060008154809291906001019190505550816002600083815260200190815260200160002060006101000a81548173ffffffffffffffffffffffffffffffffffffffff021916908373ffffffffffffffffffffffffffffffffffffffff160217905550600073ffffffffffffffffffffffffffffffffffffffff168373ffffffffffffffffffffffffffffffffffffffff16141515610d8a57600360008473ffffffffffffffffffffffffffffffffffffffff1673ffffffffffffffffffffffffffffffffffffffff16815260200190815260200160002060008154809291906001900391905055506004600082815260200190815260200160002060006101000a81549073ffffffffffffffffffffffffffffffffffffffff02191690555b8173ffffffffffffffffffffffffffffffffffffffff168373ffffffffffffffffffffffffffffffffffffffff167f4853ae1b4d437c4255ac16cd3ceda3465975023f27cb141584cd9d44440fed8260405160405180910390a3505050565b6020604051908101604052806000815250905600a165627a7a72305820ca616a1ffd15c667239e217c903c6ae18f5719cbf7e86134b518218f37e05c0d0029",
  "source": "pragma solidity ^0.4.18;\n\nimport \"./ERC721Draft.sol\";\nimport \"./TittyBase.sol\";\n\ncontract TittyOwnership is TittyBase, ERC721 {\n\n    string public name = \"CryptoTittes\";\n    string public symbol = \"CT\";\n\n    function implementsERC721() public pure returns (bool) {\n        return true;\n    }\n\n    function _isOwner(address _user, uint256 _tittyId) internal view returns (bool) {\n        return tittyIndexToOwner[_tittyId] == _user;\n    }\n\n    function _approve(uint256 _tittyId, address _approved) internal {\n         tittyApproveIndex[_tittyId] = _approved; \n    }\n\n    function _approveFor(address _user, uint256 _tittyId) internal view returns (bool) {\n         return tittyApproveIndex[_tittyId] == _user; \n    }\n\n    function totalSupply() public view returns (uint256 total) {\n        return Titties.length - 1;\n    }\n\n    function balanceOf(address _owner) public view returns (uint256 balance) {\n        return ownerTittiesCount[_owner];\n    }\n    \n    function ownerOf(uint256 _tokenId) public view returns (address owner) {\n        owner = tittyIndexToOwner[_tokenId];\n        require(owner != address(0));\n    }\n\n    function approve(address _to, uint256 _tokenId) public {\n        require(_isOwner(msg.sender, _tokenId));\n        _approve(_tokenId, _to);\n        Approval(msg.sender, _to, _tokenId);\n    }\n\n    function transferFrom(address _from, address _to, uint256 _tokenId) public {\n        require(_approveFor(msg.sender, _tokenId));\n        require(_isOwner(_from, _tokenId));\n\n        _transfer(_from, _to, _tokenId);\n        \n\n    }\n    function transfer(address _to, uint256 _tokenId) public {\n        require(_to != address(0));\n        require(_isOwner(msg.sender, _tokenId));\n\n        _transfer(msg.sender, _to, _tokenId);\n    }\n\n\n\n}",
  "sourcePath": "/Users/rogerssampaio/Sites/cryptotitties/contracts/TittyOwnership.sol",
  "compiler": {
    "name": "solc",
    "version": "0.4.18+commit.9cf6e910.Emscripten.clang"
  },
  "schemaVersion": "1.0.1",
  "updatedAt": "2018-01-04T21:06:12.990Z"
}