{
  "contractName": "TittyPurchase",
  "abi": [
    {
      "constant": true,
      "inputs": [],
      "name": "name",
      "outputs": [
        {
          "name": "",
          "type": "string"
        }
      ],
      "payable": false,
      "stateMutability": "view",
      "type": "function"
    },
    {
      "constant": false,
      "inputs": [
        {
          "name": "_to",
          "type": "address"
        },
        {
          "name": "_tokenId",
          "type": "uint256"
        }
      ],
      "name": "approve",
      "outputs": [],
      "payable": false,
      "stateMutability": "nonpayable",
      "type": "function"
    },
    {
      "constant": true,
      "inputs": [
        {
          "name": "_tittyId",
          "type": "uint256"
        }
      ],
      "name": "getATitty",
      "outputs": [
        {
          "name": "id",
          "type": "uint32"
        },
        {
          "name": "name",
          "type": "string"
        },
        {
          "name": "gender",
          "type": "string"
        },
        {
          "name": "price",
          "type": "uint256"
        },
        {
          "name": "forSale",
          "type": "bool"
        },
        {
          "name": "likes",
          "type": "uint256"
        }
      ],
      "payable": false,
      "stateMutability": "view",
      "type": "function"
    },
    {
      "constant": true,
      "inputs": [],
      "name": "implementsERC721",
      "outputs": [
        {
          "name": "",
          "type": "bool"
        }
      ],
      "payable": false,
      "stateMutability": "pure",
      "type": "function"
    },
    {
      "constant": true,
      "inputs": [],
      "name": "totalSupply",
      "outputs": [
        {
          "name": "total",
          "type": "uint256"
        }
      ],
      "payable": false,
      "stateMutability": "view",
      "type": "function"
    },
    {
      "constant": false,
      "inputs": [
        {
          "name": "_from",
          "type": "address"
        },
        {
          "name": "_to",
          "type": "address"
        },
        {
          "name": "_tokenId",
          "type": "uint256"
        }
      ],
      "name": "transferFrom",
      "outputs": [],
      "payable": false,
      "stateMutability": "nonpayable",
      "type": "function"
    },
    {
      "constant": true,
      "inputs": [
        {
          "name": "",
          "type": "uint256"
        }
      ],
      "name": "tittyIndexToOwner",
      "outputs": [
        {
          "name": "",
          "type": "address"
        }
      ],
      "payable": false,
      "stateMutability": "view",
      "type": "function"
    },
    {
      "constant": true,
      "inputs": [],
      "name": "getAmountOfTitties",
      "outputs": [
        {
          "name": "",
          "type": "uint256"
        }
      ],
      "payable": false,
      "stateMutability": "view",
      "type": "function"
    },
    {
      "constant": true,
      "inputs": [
        {
          "name": "_tokenId",
          "type": "uint256"
        }
      ],
      "name": "ownerOf",
      "outputs": [
        {
          "name": "owner",
          "type": "address"
        }
      ],
      "payable": false,
      "stateMutability": "view",
      "type": "function"
    },
    {
      "constant": true,
      "inputs": [
        {
          "name": "",
          "type": "uint256"
        }
      ],
      "name": "tittyApproveIndex",
      "outputs": [
        {
          "name": "",
          "type": "address"
        }
      ],
      "payable": false,
      "stateMutability": "view",
      "type": "function"
    },
    {
      "constant": true,
      "inputs": [
        {
          "name": "_owner",
          "type": "address"
        }
      ],
      "name": "balanceOf",
      "outputs": [
        {
          "name": "balance",
          "type": "uint256"
        }
      ],
      "payable": false,
      "stateMutability": "view",
      "type": "function"
    },
    {
      "constant": true,
      "inputs": [
        {
          "name": "_owner",
          "type": "address"
        },
        {
          "name": "_wpId",
          "type": "uint32"
        }
      ],
      "name": "getTittyByWpId",
      "outputs": [
        {
          "name": "",
          "type": "bool"
        }
      ],
      "payable": false,
      "stateMutability": "view",
      "type": "function"
    },
    {
      "constant": true,
      "inputs": [
        {
          "name": "",
          "type": "address"
        }
      ],
      "name": "symbol",
      "outputs": [
        {
          "name": "",
          "type": "string"
        }
      ],
      "payable": false,
      "stateMutability": "view",
      "type": "function"
    },
    {
      "constant": true,
      "inputs": [
        {
          "name": "",
          "type": "address"
        },
        {
          "name": "_tokenId",
          "type": "uint256"
        }
      ],
      "name": "ownerTittiesCount",
      "outputs": [
        {
          "name": "",
          "type": "uint256"
        }
      ],
      "payable": false,
      "stateMutability": "view",
      "type": "function"
    },
    {
      "constant": false,
      "inputs": [
        {
          "name": "_to",
          "type": "address"
        },
        {
          "name": "_tokenId",
          "type": "uint256"
        }
      ],
      "name": "transfer",
      "outputs": [],
      "payable": false,
      "stateMutability": "nonpayable",
      "type": "function"
    },
    {
      "constant": false,
      "inputs": [
        {
          "name": "_price",
          "type": "uint256"
        },
        {
          "name": "_tittyId",
          "type": "uint256"
        }
      ],
      "name": "changePrice",
      "outputs": [
        {
          "name": "",
          "type": "bool"
        }
      ],
      "payable": false,
      "stateMutability": "nonpayable",
      "type": "function"
    },
    {
      "constant": true,
      "inputs": [
        {
          "name": "_account",
          "type": "address"
        },
        {
          "name": "_tittyId",
          "type": "uint256"
        }
      ],
      "name": "belongsTo",
      "outputs": [
        {
          "name": "",
          "type": "bool"
        }
      ],
      "payable": false,
      "stateMutability": "view",
      "type": "function"
    },
    {
      "constant": false,
      "inputs": [
        {
          "name": "_tittyId",
          "type": "uint256"
        },
        {
          "name": "_name",
          "type": "string"
        },
        {
          "name": "_gender",
          "type": "string"
        },
        {
          "name": "_price",
          "type": "uint256"
        }
      ],
      "name": "like",
      "outputs": [],
      "payable": false,
      "stateMutability": "nonpayable",
      "type": "function"
    },
    {
      "constant": false,
      "inputs": [
        {
          "name": "_id",
          "type": "uint32"
        },
        {
          "name": "_name",
          "type": "string"
        },
        {
          "name": "_gender",
          "type": "string"
        },
        {
          "name": "_price",
          "type": "uint256"
        }
      ],
      "name": "purchaseNew",
      "outputs": [],
      "payable": true,
      "stateMutability": "payable",
      "type": "function"
    },
    {
      "constant": false,
      "inputs": [
        {
          "name": "_tittyId",
          "type": "uint256"
        }
      ],
      "name": "makeItSellable",
      "outputs": [
        {
          "name": "",
          "type": "uint256"
        }
      ],
      "payable": false,
      "stateMutability": "nonpayable",
      "type": "function"
    },
    {
      "constant": true,
      "inputs": [
        {
          "name": "_tittyId",
          "type": "uint256"
        }
      ],
      "name": "getLatestId",
      "outputs": [
        {
          "name": "",
          "type": "uint256"
        }
      ],
      "payable": false,
      "stateMutability": "view",
      "type": "function"
    },
    {
      "inputs": [
        {
          "name": "_tittyId",
          "type": "uint256"
        }
      ],
      "payable": true,
      "stateMutability": "payable",
      "type": "function",
      "constant": false,
      "name": "purchaseExistent",
      "outputs": []
    },
    {
      "payable": false,
      "stateMutability": "nonpayable",
      "type": "constructor",
      "inputs": []
    },
    {
      "anonymous": false,
      "inputs": [
        {
          "indexed": true,
          "name": "from",
          "type": "address"
        },
        {
          "indexed": true,
          "name": "to",
          "type": "address"
        },
        {
          "indexed": true,
          "name": "tokenId",
          "type": "uint256"
        }
      ],
      "name": "Transfer",
      "type": "fallback",
      "payable": false,
      "stateMutability": "nonpayable"
    },
    {
      "anonymous": false,
      "inputs": [
        {
          "indexed": true,
          "name": "from",
          "type": "address"
        },
        {
          "indexed": true,
          "name": "to",
          "type": "address"
        },
        {
          "indexed": true,
          "name": "tokenId",
          "type": "uint256"
        }
      ],
      "name": "Transfer",
      "type": "event"
    },
    {
      "anonymous": false,
      "inputs": [
        {
          "indexed": true,
          "name": "owner",
          "type": "address"
        },
        {
          "indexed": true,
          "name": "approved",
          "type": "address"
        },
        {
          "indexed": true,
          "name": "tokenId",
          "type": "uint256"
        }
      ],
      "name": "Approval",
      "type": "event"
    },
    {
      "anonymous": false,
      "inputs": [
        {
          "indexed": true,
          "name": "from",
          "type": "address"
        },
        {
          "indexed": true,
          "name": "to",
          "type": "address"
        }
      ],
      "name": "Transfer",
      "type": "event"
    },
    {
      "anonymous": false,
      "inputs": [
        {
          "indexed": true,
          "name": "from",
          "type": "address"
        },
        {
          "indexed": false,
          "name": "tittyId",
          "type": "uint256"
        }
      ],
      "name": "Creation",
      "type": "event"
    }
  ],
  "bytecode": "0x60606040526040805190810160405280600c81526020017f43727970746f5469747465730000000000000000000000000000000000000000815250600490805190602001906200005192919062000496565b506040805190810160405280600281526020017f4354000000000000000000000000000000000000000000000000000000000000815250600590805190602001906200009f92919062000496565b503415620000ac57600080fd5b6200013f60006040805190810160405280600781526020017f756e697373657800000000000000000000000000000000000000000000000000815250633b9aca0060006040805190810160405280600781526020017f7175696d65726100000000000000000000000000000000000000000000000000815250620001466401000000000262001617176401000000009004565b5062000731565b6000620001526200051d565b600060c0604051908101604052808963ffffffff16815260200185815260200188815260200187815260200160001515815260200160008152509150600160008054806001018281620001a691906200056c565b9160005260206000209060060201600085909190915060008201518160000160006101000a81548163ffffffff021916908363ffffffff160217905550602082015181600101908051906020019062000201929190620005a1565b50604082015181600201908051906020019062000220929190620005a1565b506060820151816003015560808201518160040160006101000a81548160ff02191690831515021790555060a0820151816005015550500390508473ffffffffffffffffffffffffffffffffffffffff167fc07d6fc5db170f8be7da51bea7bf502fb674192c618536ee210555994694b0b7826040518082815260200191505060405180910390a2620002ca60008683620002d864010000000002620011b4176401000000009004565b809250505095945050505050565b600260008373ffffffffffffffffffffffffffffffffffffffff1673ffffffffffffffffffffffffffffffffffffffff16815260200190815260200160002060008154809291906001019190505550816001600083815260200190815260200160002060006101000a81548173ffffffffffffffffffffffffffffffffffffffff021916908373ffffffffffffffffffffffffffffffffffffffff160217905550600073ffffffffffffffffffffffffffffffffffffffff168373ffffffffffffffffffffffffffffffffffffffff161415156200043757600260008473ffffffffffffffffffffffffffffffffffffffff1673ffffffffffffffffffffffffffffffffffffffff16815260200190815260200160002060008154809291906001900391905055506003600082815260200190815260200160002060006101000a81549073ffffffffffffffffffffffffffffffffffffffff02191690555b8173ffffffffffffffffffffffffffffffffffffffff168373ffffffffffffffffffffffffffffffffffffffff167f4853ae1b4d437c4255ac16cd3ceda3465975023f27cb141584cd9d44440fed8260405160405180910390a3505050565b828054600181600116156101000203166002900490600052602060002090601f016020900481019282601f10620004d957805160ff19168380011785556200050a565b828001600101855582156200050a579182015b8281111562000509578251825591602001919060010190620004ec565b5b50905062000519919062000628565b5090565b60c060405190810160405280600063ffffffff1681526020016200054062000650565b81526020016200054f62000650565b815260200160008152602001600015158152602001600081525090565b8154818355818115116200059c576006028160060283600052602060002091820191016200059b919062000664565b5b505050565b828054600181600116156101000203166002900490600052602060002090601f016020900481019282601f10620005e457805160ff191683800117855562000615565b8280016001018555821562000615579182015b8281111562000614578251825591602001919060010190620005f7565b5b50905062000624919062000628565b5090565b6200064d91905b80821115620006495760008160009055506001016200062f565b5090565b90565b602060405190810160405280600081525090565b620006e291905b80821115620006de57600080820160006101000a81549063ffffffff02191690556001820160006200069e9190620006e5565b600282016000620006b09190620006e5565b60038201600090556004820160006101000a81549060ff02191690556005820160009055506006016200066b565b5090565b90565b50805460018160011615610100020316600290046000825580601f106200070d57506200072e565b601f0160209004906000526020600020908101906200072d919062000628565b5b50565b611bfb80620007416000396000f300606060405260043610610128576000357c0100000000000000000000000000000000000000000000000000000000900463ffffffff16806306fdde0314610135578063095ea7b3146101c35780630a68f374146102055780631051db341461033957806318160ddd1461036657806323b872dd1461038f57806339687870146103f05780633f5a9e22146104535780636352211e1461047c5780636c5eb382146104df57806370a082311461054257806389d349091461058f57806395d89b41146105ef578063974324651461067d578063a9059cbb146106ca578063b3de019c1461070c578063da0225db14610738578063e82935da14610792578063ee0a7dce146107b5578063ee2ef6ec14610862578063eff91c7e14610885578063f7f59411146108ae575b341561013357600080fd5b005b341561014057600080fd5b6101486108c6565b6040518080602001828103825283818151815260200191508051906020019080838360005b8381101561018857808201518184015260208101905061016d565b50505050905090810190601f1680156101b55780820380516001836020036101000a031916815260200191505b509250505060405180910390f35b34156101ce57600080fd5b610203600480803573ffffffffffffffffffffffffffffffffffffffff16906020019091908035906020019091905050610964565b005b341561021057600080fd5b61022660048080359060200190919050506109e2565b604051808763ffffffff1663ffffffff168152602001806020018060200186815260200185151515158152602001848152602001838103835288818151815260200191508051906020019080838360005b83811015610292578082015181840152602081019050610277565b50505050905090810190601f1680156102bf5780820380516001836020036101000a031916815260200191505b50838103825287818151815260200191508051906020019080838360005b838110156102f85780820151818401526020810190506102dd565b50505050905090810190601f1680156103255780820380516001836020036101000a031916815260200191505b509850505050505050505060405180910390f35b341561034457600080fd5b61034c610b9a565b604051808215151515815260200191505060405180910390f35b341561037157600080fd5b610379610ba3565b6040518082815260200191505060405180910390f35b341561039a57600080fd5b6103ee600480803573ffffffffffffffffffffffffffffffffffffffff1690602001909190803573ffffffffffffffffffffffffffffffffffffffff16906020019091908035906020019091905050610bb3565b005b34156103fb57600080fd5b6104116004808035906020019091905050610bed565b604051808273ffffffffffffffffffffffffffffffffffffffff1673ffffffffffffffffffffffffffffffffffffffff16815260200191505060405180910390f35b341561045e57600080fd5b610466610c20565b6040518082815260200191505060405180910390f35b341561048757600080fd5b61049d6004808035906020019091905050610c2c565b604051808273ffffffffffffffffffffffffffffffffffffffff1673ffffffffffffffffffffffffffffffffffffffff16815260200191505060405180910390f35b34156104ea57600080fd5b6105006004808035906020019091905050610ca5565b604051808273ffffffffffffffffffffffffffffffffffffffff1673ffffffffffffffffffffffffffffffffffffffff16815260200191505060405180910390f35b341561054d57600080fd5b610579600480803573ffffffffffffffffffffffffffffffffffffffff16906020019091905050610cd8565b6040518082815260200191505060405180910390f35b341561059a57600080fd5b6105d5600480803573ffffffffffffffffffffffffffffffffffffffff1690602001909190803563ffffffff16906020019091905050610d21565b604051808215151515815260200191505060405180910390f35b34156105fa57600080fd5b610602610e0d565b6040518080602001828103825283818151815260200191508051906020019080838360005b83811015610642578082015181840152602081019050610627565b50505050905090810190601f16801561066f5780820380516001836020036101000a031916815260200191505b509250505060405180910390f35b341561068857600080fd5b6106b4600480803573ffffffffffffffffffffffffffffffffffffffff16906020019091905050610eab565b6040518082815260200191505060405180910390f35b34156106d557600080fd5b61070a600480803573ffffffffffffffffffffffffffffffffffffffff16906020019091908035906020019091905050610ec3565b005b341561071757600080fd5b6107366004808035906020019091908035906020019091905050610f23565b005b341561074357600080fd5b610778600480803573ffffffffffffffffffffffffffffffffffffffff16906020019091908035906020019091905050610f31565b604051808215151515815260200191505060405180910390f35b341561079d57600080fd5b6107b36004808035906020019091905050610f45565b005b610860600480803563ffffffff1690602001909190803590602001908201803590602001908080601f0160208091040260200160405190810160405280939291908181526020018383808284378201915050505050509190803590602001908201803590602001908080601f01602080910402602001604051908101604052809392919081815260200183838082843782019150505050505091908035906020019091905050610f51565b005b341561086d57600080fd5b6108836004808035906020019091905050610f7f565b005b341561089057600080fd5b610898610f8d565b6040518082815260200191505060405180910390f35b6108c46004808035906020019091905050610f9d565b005b60048054600181600116156101000203166002900480601f01602080910402602001604051908101604052809291908181526020018280546001816001161561010002031660029004801561095c5780601f106109315761010080835404028352916020019161095c565b820191906000526020600020905b81548152906001019060200180831161093f57829003601f168201915b505050505081565b61096e3382611086565b151561097957600080fd5b61098381836110f2565b808273ffffffffffffffffffffffffffffffffffffffff163373ffffffffffffffffffffffffffffffffffffffff167f8c5be1e5ebec7d5bd14f71427d1e84f3dd0314c0f7b2291e5b200ac8c7c3b92560405160405180910390a45050565b60006109ec61193c565b6109f461193c565b600080600080600088815481101515610a0957fe5b906000526020600020906006020190508060000160009054906101000a900463ffffffff169650806001018054600181600116156101000203166002900480601f016020809104026020016040519081016040528092919081815260200182805460018160011615610100020316600290048015610ac85780601f10610a9d57610100808354040283529160200191610ac8565b820191906000526020600020905b815481529060010190602001808311610aab57829003601f168201915b50505050509550806002018054600181600116156101000203166002900480601f016020809104026020016040519081016040528092919081815260200182805460018160011615610100020316600290048015610b675780601f10610b3c57610100808354040283529160200191610b67565b820191906000526020600020905b815481529060010190602001808311610b4a57829003601f168201915b50505050509450806003015493508060040160009054906101000a900460ff169250806005015491505091939550919395565b60006001905090565b6000600160008054905003905090565b610bbd3382611148565b1515610bc857600080fd5b610bd28382611086565b1515610bdd57600080fd5b610be88383836111b4565b505050565b60016020528060005260406000206000915054906101000a900473ffffffffffffffffffffffffffffffffffffffff1681565b60008080549050905090565b60006001600083815260200190815260200160002060009054906101000a900473ffffffffffffffffffffffffffffffffffffffff169050600073ffffffffffffffffffffffffffffffffffffffff168173ffffffffffffffffffffffffffffffffffffffff1614151515610ca057600080fd5b919050565b60036020528060005260406000206000915054906101000a900473ffffffffffffffffffffffffffffffffffffffff1681565b6000600260008373ffffffffffffffffffffffffffffffffffffffff1673ffffffffffffffffffffffffffffffffffffffff168152602001908152602001600020549050919050565b60008060008091505b610d32610ba3565b821015610e0057600082815481101515610d4857fe5b906000526020600020906006020190508363ffffffff168160000160009054906101000a900463ffffffff1663ffffffff16148015610de557508473ffffffffffffffffffffffffffffffffffffffff166001600084815260200190815260200160002060009054906101000a900473ffffffffffffffffffffffffffffffffffffffff1673ffffffffffffffffffffffffffffffffffffffff16145b15610df35760019250610e05565b8180600101925050610d2a565b600092505b505092915050565b60058054600181600116156101000203166002900480601f016020809104026020016040519081016040528092919081815260200182805460018160011615610100020316600290048015610ea35780601f10610e7857610100808354040283529160200191610ea3565b820191906000526020600020905b815481529060010190602001808311610e8657829003601f168201915b505050505081565b60026020528060005260406000206000915090505481565b600073ffffffffffffffffffffffffffffffffffffffff168273ffffffffffffffffffffffffffffffffffffffff1614151515610eff57600080fd5b610f093382611086565b1515610f1457600080fd5b610f1f3383836111b4565b5050565b610f2d8282611371565b5050565b6000610f3d8383611086565b905092915050565b610f4e816114f6565b50565b600034148015610f615750803414155b15610f6b57600080fd5b610f788483833387611617565b5050505050565b610f8a60018261178b565b50565b6000600160008054905003905090565b600080600080600085815481101515610fb257fe5b90600052602060002090600602019350610fcf8460030154611923565b9250600034148015610fe5575083600301543414155b15610fef57600080fd5b82340391506001600086815260200190815260200160002060009054906101000a900473ffffffffffffffffffffffffffffffffffffffff16905061103485336110f2565b61103f813387610bb3565b8073ffffffffffffffffffffffffffffffffffffffff166108fc839081150290604051600060405180830381858888f19350505050151561107f57600080fd5b5050505050565b60008273ffffffffffffffffffffffffffffffffffffffff166001600084815260200190815260200160002060009054906101000a900473ffffffffffffffffffffffffffffffffffffffff1673ffffffffffffffffffffffffffffffffffffffff1614905092915050565b806003600084815260200190815260200160002060006101000a81548173ffffffffffffffffffffffffffffffffffffffff021916908373ffffffffffffffffffffffffffffffffffffffff1602179055505050565b60008273ffffffffffffffffffffffffffffffffffffffff166003600084815260200190815260200160002060009054906101000a900473ffffffffffffffffffffffffffffffffffffffff1673ffffffffffffffffffffffffffffffffffffffff1614905092915050565b600260008373ffffffffffffffffffffffffffffffffffffffff1673ffffffffffffffffffffffffffffffffffffffff16815260200190815260200160002060008154809291906001019190505550816001600083815260200190815260200160002060006101000a81548173ffffffffffffffffffffffffffffffffffffffff021916908373ffffffffffffffffffffffffffffffffffffffff160217905550600073ffffffffffffffffffffffffffffffffffffffff168373ffffffffffffffffffffffffffffffffffffffff1614151561131257600260008473ffffffffffffffffffffffffffffffffffffffff1673ffffffffffffffffffffffffffffffffffffffff16815260200190815260200160002060008154809291906001900391905055506003600082815260200190815260200160002060006101000a81549073ffffffffffffffffffffffffffffffffffffffff02191690555b8173ffffffffffffffffffffffffffffffffffffffff168373ffffffffffffffffffffffffffffffffffffffff167f4853ae1b4d437c4255ac16cd3ceda3465975023f27cb141584cd9d44440fed8260405160405180910390a3505050565b60003373ffffffffffffffffffffffffffffffffffffffff166001600084815260200190815260200160002060009054906101000a900473ffffffffffffffffffffffffffffffffffffffff1673ffffffffffffffffffffffffffffffffffffffff161415156113e057600080fd5b6000828154811015156113ef57fe5b906000526020600020906006020190508281600301819055508060008381548110151561141857fe5b90600052602060002090600602016000820160009054906101000a900463ffffffff168160000160006101000a81548163ffffffff021916908363ffffffff16021790555060018201816001019080546001816001161561010002031660029004611484929190611950565b50600282018160020190805460018160011615610100020316600290046114ac929190611950565b50600382015481600301556004820160009054906101000a900460ff168160040160006101000a81548160ff02191690831515021790555060058201548160050155905050505050565b6000808281548110151561150657fe5b9060005260206000209060060201905080600501600081548092919060010191905055508060008381548110151561153a57fe5b90600052602060002090600602016000820160009054906101000a900463ffffffff168160000160006101000a81548163ffffffff021916908363ffffffff160217905550600182018160010190805460018160011615610100020316600290046115a6929190611950565b50600282018160020190805460018160011615610100020316600290046115ce929190611950565b50600382015481600301556004820160009054906101000a900460ff168160040160006101000a81548160ff021916908315150217905550600582015481600501559050505050565b60006116216119d7565b600060c0604051908101604052808963ffffffff168152602001858152602001888152602001878152602001600015158152602001600081525091506001600080548060010182816116739190611a22565b9160005260206000209060060201600085909190915060008201518160000160006101000a81548163ffffffff021916908363ffffffff16021790555060208201518160010190805190602001906116cc929190611a54565b5060408201518160020190805190602001906116e9929190611a54565b506060820151816003015560808201518160040160006101000a81548160ff02191690831515021790555060a0820151816005015550500390508473ffffffffffffffffffffffffffffffffffffffff167fc07d6fc5db170f8be7da51bea7bf502fb674192c618536ee210555994694b0b7826040518082815260200191505060405180910390a261177d600086836111b4565b809250505095945050505050565b60003373ffffffffffffffffffffffffffffffffffffffff166001600084815260200190815260200160002060009054906101000a900473ffffffffffffffffffffffffffffffffffffffff1673ffffffffffffffffffffffffffffffffffffffff161415156117fa57600080fd5b60008281548110151561180957fe5b90600052602060002090600602019050828160040160006101000a81548160ff0219169083151502179055508060008381548110151561184557fe5b90600052602060002090600602016000820160009054906101000a900463ffffffff168160000160006101000a81548163ffffffff021916908363ffffffff160217905550600182018160010190805460018160011615610100020316600290046118b1929190611950565b50600282018160020190805460018160011615610100020316600290046118d9929190611950565b50600382015481600301556004820160009054906101000a900460ff168160040160006101000a81548160ff02191690831515021790555060058201548160050155905050505050565b60006064600a830281151561193457fe5b049050919050565b602060405190810160405280600081525090565b828054600181600116156101000203166002900490600052602060002090601f016020900481019282601f1061198957805485556119c6565b828001600101855582156119c657600052602060002091601f016020900482015b828111156119c55782548255916001019190600101906119aa565b5b5090506119d39190611ad4565b5090565b60c060405190810160405280600063ffffffff1681526020016119f8611af9565b8152602001611a05611af9565b815260200160008152602001600015158152602001600081525090565b815481835581811511611a4f57600602816006028360005260206000209182019101611a4e9190611b0d565b5b505050565b828054600181600116156101000203166002900490600052602060002090601f016020900481019282601f10611a9557805160ff1916838001178555611ac3565b82800160010185558215611ac3579182015b82811115611ac2578251825591602001919060010190611aa7565b5b509050611ad09190611ad4565b5090565b611af691905b80821115611af2576000816000905550600101611ada565b5090565b90565b602060405190810160405280600081525090565b611b8491905b80821115611b8057600080820160006101000a81549063ffffffff0219169055600182016000611b439190611b87565b600282016000611b539190611b87565b60038201600090556004820160006101000a81549060ff0219169055600582016000905550600601611b13565b5090565b90565b50805460018160011615610100020316600290046000825580601f10611bad5750611bcc565b601f016020900490600052602060002090810190611bcb9190611ad4565b5b505600a165627a7a72305820934dc0ef6571df14b7bcde4791542a977044873316a7566297ed1e74e0617e1e0029",
  "source": "pragma solidity ^0.4.18;\n\nimport \"./TittyOwnership.sol\";\n\ncontract TittyPurchase is TittyOwnership {\n\n    function TittyPurchase() public {\n        createTitty(0, \"unissex\", 1000000000, address(0), \"quimera\");\n    }\n\n    function purchaseNew(uint32 _id, string _name, string _gender, uint256 _price) public payable {\n\n        if (msg.value == 0 && msg.value != _price)\n            revert();\n\n        createTitty(_id, _gender, _price, msg.sender, _name);\n\n    }\n\n    function purchaseExistent(uint256 _tittyId) public payable {\n\n        Titty storage titty = Titties[_tittyId];\n        uint256 fee = calculateFee(titty.price);\n        if (msg.value == 0 && msg.value != titty.price)\n            revert();\n        \n        uint256 val = msg.value - fee;\n        address owner = tittyIndexToOwner[_tittyId];\n        _approve(_tittyId, msg.sender);\n        transferFrom(owner, msg.sender, _tittyId);\n        owner.transfer(val);\n\n    }\n\n    function getAmountOfTitties() public view returns(uint) {\n        return Titties.length;\n    }\n\n    function getLatestId() public view returns (uint) {\n        return Titties.length - 1;\n    }\n\n    function getTittyByWpId(address _owner, uint32 _wpId) public view returns (bool) {\n        \n        for (uint256 i = 0; i<totalSupply(); i++) {\n            Titty storage titty = Titties[i];\n            if (titty.id == _wpId && tittyIndexToOwner[i] == _owner) {\n                return true;\n            }\n        }\n        \n        return false;\n    }\n\n    function belongsTo(address _account, uint256 _tittyId) public view returns (bool) {\n        return _isOwner(_account, _tittyId);\n    }\n\n    function like(uint256 _tittyId) public {\n        _likeTitty(_tittyId);\n    }\n\n    function changePrice(uint256 _price, uint256 _tittyId) public {\n        _changeTittyPrice(_price, _tittyId);\n    }\n\n    function makeItSellable(uint256 _tittyId) public {\n        _setTittyForSale(true, _tittyId);\n    }\n\n    function calculateFee (uint256 _price) internal pure returns(uint) {\n        return (_price * 10)/100;\n    }\n\n    function() external {}\n\n    function getATitty(uint256 _tittyId)\n        public \n        view \n        returns (\n        uint32 id,\n        string name,\n        string gender,\n        uint256 price,\n        bool forSale,\n        uint256 likes\n\n        ) {\n\n            Titty storage titty = Titties[_tittyId];\n            id = titty.id;\n            name = titty.name;\n            gender = titty.gender;\n            price = titty.price;\n            forSale = titty.forSale;\n            likes = titty.likes;\n\n        }\n\n}",
  "sourcePath": "/Users/rogerssampaio/Sites/cryptotitties/contracts/TittyPurchase.sol",
  "compiler": {
    "name": "solc",
    "version": "0.4.18+commit.9cf6e910.Emscripten.clang"
  },
  "schemaVersion": "1.0.1",
  "updatedAt": "2017-12-20T05:23:50.164Z"
}