{
  "contractName": "TittyPurchase",
  "abi": [
    {
      "constant": true,
      "inputs": [],
      "name": "name",
      "outputs": [
        {
          "name": "",
          "type": "string"
        }
      ],
      "payable": false,
      "stateMutability": "view",
      "type": "function"
    },
    {
      "constant": false,
      "inputs": [
        {
          "name": "_to",
          "type": "address"
        },
        {
          "name": "_tokenId",
          "type": "uint256"
        }
      ],
      "name": "approve",
      "outputs": [],
      "payable": false,
      "stateMutability": "nonpayable",
      "type": "function"
    },
    {
      "constant": true,
      "inputs": [
        {
          "name": "_tittyId",
          "type": "uint256"
        }
      ],
      "name": "getATitty",
      "outputs": [
        {
          "name": "id",
          "type": "uint256"
        },
        {
          "name": "name",
          "type": "string"
        },
        {
          "name": "gender",
          "type": "string"
        },
        {
          "name": "originalPrice",
          "type": "uint256"
        },
        {
          "name": "salePrice",
          "type": "uint256"
        },
        {
          "name": "forSale",
          "type": "bool"
        }
      ],
      "payable": false,
      "stateMutability": "view",
      "type": "function"
    },
    {
      "constant": true,
      "inputs": [],
      "name": "implementsERC721",
      "outputs": [
        {
          "name": "",
          "type": "bool"
        }
      ],
      "payable": false,
      "stateMutability": "pure",
      "type": "function"
    },
    {
      "constant": false,
      "inputs": [
        {
          "name": "_id",
          "type": "uint256"
        },
        {
          "name": "_name",
          "type": "string"
        },
        {
          "name": "_gender",
          "type": "string"
        },
        {
          "name": "_price",
          "type": "uint256"
        }
      ],
      "name": "purchaseNew",
      "outputs": [],
      "payable": true,
      "stateMutability": "payable",
      "type": "function"
    },
    {
      "constant": true,
      "inputs": [],
      "name": "totalSupply",
      "outputs": [
        {
          "name": "total",
          "type": "uint256"
        }
      ],
      "payable": false,
      "stateMutability": "view",
      "type": "function"
    },
    {
      "constant": false,
      "inputs": [
        {
          "name": "_from",
          "type": "address"
        },
        {
          "name": "_to",
          "type": "address"
        },
        {
          "name": "_tokenId",
          "type": "uint256"
        }
      ],
      "name": "transferFrom",
      "outputs": [],
      "payable": false,
      "stateMutability": "nonpayable",
      "type": "function"
    },
    {
      "constant": false,
      "inputs": [
        {
          "name": "_name",
          "type": "string"
        },
        {
          "name": "_tittyId",
          "type": "uint256"
        }
      ],
      "name": "changeName",
      "outputs": [],
      "payable": false,
      "stateMutability": "nonpayable",
      "type": "function"
    },
    {
      "constant": true,
      "inputs": [
        {
          "name": "",
          "type": "uint256"
        }
      ],
      "name": "tittyIndexToOwner",
      "outputs": [
        {
          "name": "",
          "type": "address"
        }
      ],
      "payable": false,
      "stateMutability": "view",
      "type": "function"
    },
    {
      "constant": true,
      "inputs": [],
      "name": "getAmountOfTitties",
      "outputs": [
        {
          "name": "",
          "type": "uint256"
        }
      ],
      "payable": false,
      "stateMutability": "view",
      "type": "function"
    },
    {
      "constant": true,
      "inputs": [
        {
          "name": "_tittyId",
          "type": "uint256"
        },
        {
          "name": "_aId",
          "type": "uint256"
        }
      ],
      "name": "getAccessory",
      "outputs": [
        {
          "name": "id",
          "type": "uint256"
        },
        {
          "name": "name",
          "type": "string"
        },
        {
          "name": "price",
          "type": "uint256"
        },
        {
          "name": "active",
          "type": "bool"
        }
      ],
      "payable": false,
      "stateMutability": "view",
      "type": "function"
    },
    {
      "constant": true,
      "inputs": [
        {
          "name": "_tokenId",
          "type": "uint256"
        }
      ],
      "name": "ownerOf",
      "outputs": [
        {
          "name": "owner",
          "type": "address"
        }
      ],
      "payable": false,
      "stateMutability": "view",
      "type": "function"
    },
    {
      "constant": true,
      "inputs": [
        {
          "name": "",
          "type": "uint256"
        }
      ],
      "name": "tittyApproveIndex",
      "outputs": [
        {
          "name": "",
          "type": "address"
        }
      ],
      "payable": false,
      "stateMutability": "view",
      "type": "function"
    },
    {
      "constant": true,
      "inputs": [
        {
          "name": "_owner",
          "type": "address"
        }
      ],
      "name": "balanceOf",
      "outputs": [
        {
          "name": "balance",
          "type": "uint256"
        }
      ],
      "payable": false,
      "stateMutability": "view",
      "type": "function"
    },
    {
      "constant": true,
      "inputs": [
        {
          "name": "_tittyId",
          "type": "uint256"
        }
      ],
      "name": "totalAccessories",
      "outputs": [
        {
          "name": "",
          "type": "uint256"
        }
      ],
      "payable": false,
      "stateMutability": "view",
      "type": "function"
    },
    {
      "constant": true,
      "inputs": [
        {
          "name": "_owner",
          "type": "address"
        },
        {
          "name": "_wpId",
          "type": "uint256"
        }
      ],
      "name": "getTittyByWpId",
      "outputs": [
        {
          "name": "own",
          "type": "bool"
        },
        {
          "name": "tittyId",
          "type": "uint256"
        }
      ],
      "payable": false,
      "stateMutability": "view",
      "type": "function"
    },
    {
      "constant": false,
      "inputs": [
        {
          "name": "_tittyId",
          "type": "uint256"
        },
        {
          "name": "_accId",
          "type": "uint256"
        },
        {
          "name": "_name",
          "type": "string"
        },
        {
          "name": "_price",
          "type": "uint256"
        }
      ],
      "name": "purchaseAccessory",
      "outputs": [],
      "payable": true,
      "stateMutability": "payable",
      "type": "function"
    },
    {
      "constant": true,
      "inputs": [],
      "name": "symbol",
      "outputs": [
        {
          "name": "",
          "type": "string"
        }
      ],
      "payable": false,
      "stateMutability": "view",
      "type": "function"
    },
    {
      "constant": true,
      "inputs": [
        {
          "name": "",
          "type": "address"
        }
      ],
      "name": "ownerTittiesCount",
      "outputs": [
        {
          "name": "",
          "type": "uint256"
        }
      ],
      "payable": false,
      "stateMutability": "view",
      "type": "function"
    },
    {
      "constant": false,
      "inputs": [
        {
          "name": "_to",
          "type": "address"
        },
        {
          "name": "_tokenId",
          "type": "uint256"
        }
      ],
      "name": "transfer",
      "outputs": [],
      "payable": false,
      "stateMutability": "nonpayable",
      "type": "function"
    },
    {
      "constant": false,
      "inputs": [
        {
          "name": "_price",
          "type": "uint256"
        },
        {
          "name": "_tittyId",
          "type": "uint256"
        }
      ],
      "name": "changePrice",
      "outputs": [],
      "payable": false,
      "stateMutability": "nonpayable",
      "type": "function"
    },
    {
      "constant": true,
      "inputs": [
        {
          "name": "_account",
          "type": "address"
        },
        {
          "name": "_tittyId",
          "type": "uint256"
        }
      ],
      "name": "belongsTo",
      "outputs": [
        {
          "name": "",
          "type": "bool"
        }
      ],
      "payable": false,
      "stateMutability": "view",
      "type": "function"
    },
    {
      "constant": false,
      "inputs": [
        {
          "name": "_tittyId",
          "type": "uint256"
        }
      ],
      "name": "makeItSellable",
      "outputs": [],
      "payable": false,
      "stateMutability": "nonpayable",
      "type": "function"
    },
    {
      "constant": true,
      "inputs": [],
      "name": "getLatestId",
      "outputs": [
        {
          "name": "",
          "type": "uint256"
        }
      ],
      "payable": false,
      "stateMutability": "view",
      "type": "function"
    },
    {
      "constant": false,
      "inputs": [
        {
          "name": "_tittyId",
          "type": "uint256"
        }
      ],
      "name": "purchaseExistent",
      "outputs": [],
      "payable": true,
      "stateMutability": "payable",
      "type": "function"
    },
    {
      "inputs": [
        {
          "name": "_wallet",
          "type": "address"
        },
        {
          "name": "_boat",
          "type": "address"
        }
      ],
      "payable": false,
      "stateMutability": "nonpayable",
      "type": "constructor"
    },
    {
      "payable": false,
      "stateMutability": "nonpayable",
      "type": "fallback"
    },
    {
      "anonymous": false,
      "inputs": [
        {
          "indexed": true,
          "name": "from",
          "type": "address"
        },
        {
          "indexed": true,
          "name": "to",
          "type": "address"
        },
        {
          "indexed": true,
          "name": "tokenId",
          "type": "uint256"
        }
      ],
      "name": "Transfer",
      "type": "event"
    },
    {
      "anonymous": false,
      "inputs": [
        {
          "indexed": true,
          "name": "owner",
          "type": "address"
        },
        {
          "indexed": true,
          "name": "approved",
          "type": "address"
        },
        {
          "indexed": true,
          "name": "tokenId",
          "type": "uint256"
        }
      ],
      "name": "Approval",
      "type": "event"
    },
    {
      "anonymous": false,
      "inputs": [
        {
          "indexed": true,
          "name": "from",
          "type": "address"
        },
        {
          "indexed": true,
          "name": "to",
          "type": "address"
        }
      ],
      "name": "Transfer",
      "type": "event"
    },
    {
      "anonymous": false,
      "inputs": [
        {
          "indexed": true,
          "name": "from",
          "type": "address"
        },
        {
          "indexed": false,
          "name": "tittyId",
          "type": "uint256"
        },
        {
          "indexed": false,
          "name": "wpId",
          "type": "uint256"
        }
      ],
      "name": "Creation",
      "type": "event"
    },
    {
      "anonymous": false,
      "inputs": [
        {
          "indexed": false,
          "name": "tittyId",
          "type": "uint256"
        },
        {
          "indexed": false,
          "name": "accessoryId",
          "type": "uint256"
        }
      ],
      "name": "AddAccessory",
      "type": "event"
    }
  ],
  "bytecode": "0x60606040526040805190810160405280600c81526020017f43727970746f5469747465730000000000000000000000000000000000000000815250600590805190602001906200005192919062000569565b506040805190810160405280600281526020017f4354000000000000000000000000000000000000000000000000000000000000815250600690805190602001906200009f92919062000569565b503415620000ac57600080fd5b60405160408062002d168339810160405280805190602001909190805190602001909190505081600760006101000a81548173ffffffffffffffffffffffffffffffffffffffff021916908373ffffffffffffffffffffffffffffffffffffffff16021790555080600860006101000a81548173ffffffffffffffffffffffffffffffffffffffff021916908373ffffffffffffffffffffffffffffffffffffffff160217905550620001e760006040805190810160405280600781526020017f756e697373657800000000000000000000000000000000000000000000000000815250633b9aca0060006040805190810160405280600781526020017f67656e6573697300000000000000000000000000000000000000000000000000815250620001f064010000000002620015d8176401000000009004565b50505062000899565b6000620001fc620005f0565b600060e0604051908101604052808981526020018581526020018881526020018781526020018781526020016000604051805910620002385750595b908082528060200260200182016040525081526020016000151581525091506001600080548060010182816200026f919062000648565b91600052602060002090600702016000859091909150600082015181600001556020820151816001019080519060200190620002ad9291906200067d565b506040820151816002019080519060200190620002cc9291906200067d565b50606082015181600301556080820151816004015560a0820151816005019080519060200190620002ff92919062000704565b5060c08201518160060160006101000a81548160ff02191690831515021790555050500390508473ffffffffffffffffffffffffffffffffffffffff167f0c42492e9a23edb18d7a10ab834f9871ecd80970bffc97312a8a1c05b88e807d828a604051808381526020018281526020019250505060405180910390a26200039d60008683620003ab64010000000002620017de176401000000009004565b809250505095945050505050565b600360008373ffffffffffffffffffffffffffffffffffffffff1673ffffffffffffffffffffffffffffffffffffffff16815260200190815260200160002060008154809291906001019190505550816002600083815260200190815260200160002060006101000a81548173ffffffffffffffffffffffffffffffffffffffff021916908373ffffffffffffffffffffffffffffffffffffffff160217905550600073ffffffffffffffffffffffffffffffffffffffff168373ffffffffffffffffffffffffffffffffffffffff161415156200050a57600360008473ffffffffffffffffffffffffffffffffffffffff1673ffffffffffffffffffffffffffffffffffffffff16815260200190815260200160002060008154809291906001900391905055506004600082815260200190815260200160002060006101000a81549073ffffffffffffffffffffffffffffffffffffffff02191690555b8173ffffffffffffffffffffffffffffffffffffffff168373ffffffffffffffffffffffffffffffffffffffff167f4853ae1b4d437c4255ac16cd3ceda3465975023f27cb141584cd9d44440fed8260405160405180910390a3505050565b828054600181600116156101000203166002900490600052602060002090601f016020900481019282601f10620005ac57805160ff1916838001178555620005dd565b82800160010185558215620005dd579182015b82811115620005dc578251825591602001919060010190620005bf565b5b509050620005ec919062000756565b5090565b60e060405190810160405280600081526020016200060d6200077e565b81526020016200061c6200077e565b815260200160008152602001600081526020016200063962000792565b81526020016000151581525090565b8154818355818115116200067857600702816007028360005260206000209182019101620006779190620007a6565b5b505050565b828054600181600116156101000203166002900490600052602060002090601f016020900481019282601f10620006c057805160ff1916838001178555620006f1565b82800160010185558215620006f1579182015b82811115620006f0578251825591602001919060010190620006d3565b5b50905062000700919062000756565b5090565b82805482825590600052602060002090810192821562000743579160200282015b828111156200074257825182559160200191906001019062000725565b5b50905062000752919062000756565b5090565b6200077b91905b80821115620007775760008160009055506001016200075d565b5090565b90565b602060405190810160405280600081525090565b602060405190810160405280600081525090565b6200082791905b808211156200082357600080820160009055600182016000620007d191906200082a565b600282016000620007e391906200082a565b6003820160009055600482016000905560058201600062000805919062000876565b6006820160006101000a81549060ff021916905550600701620007ad565b5090565b90565b50805460018160011615610100020316600290046000825580601f1062000852575062000873565b601f01602090049060005260206000209081019062000872919062000756565b5b50565b508054600082559060005260206000209081019062000896919062000756565b50565b61246d80620008a96000396000f300606060405260043610610149576000357c0100000000000000000000000000000000000000000000000000000000900463ffffffff16806306fdde0314610156578063095ea7b3146101e45780630a68f374146102265780631051db341461034e5780631626315c1461037b57806318160ddd1461042257806323b872dd1461044b578063270dc9fd146104ac57806339687870146105125780633f5a9e22146105755780634a6cfca71461059e5780636352211e1461065c5780636c5eb382146106bf57806370a08231146107225780637465df261461076f578063827c1e41146107a657806394ebd3741461080757806395d89b41146108745780639743246514610902578063a9059cbb1461094f578063b3de019c14610991578063da0225db146109bd578063ee2ef6ec14610a17578063eff91c7e14610a3a578063f7f5941114610a63575b341561015457600080fd5b005b341561016157600080fd5b610169610a7b565b6040518080602001828103825283818151815260200191508051906020019080838360005b838110156101a957808201518184015260208101905061018e565b50505050905090810190601f1680156101d65780820380516001836020036101000a031916815260200191505b509250505060405180910390f35b34156101ef57600080fd5b610224600480803573ffffffffffffffffffffffffffffffffffffffff16906020019091908035906020019091905050610b19565b005b341561023157600080fd5b6102476004808035906020019091905050610b97565b60405180878152602001806020018060200186815260200185815260200184151515158152602001838103835288818151815260200191508051906020019080838360005b838110156102a757808201518184015260208101905061028c565b50505050905090810190601f1680156102d45780820380516001836020036101000a031916815260200191505b50838103825287818151815260200191508051906020019080838360005b8381101561030d5780820151818401526020810190506102f2565b50505050905090810190601f16801561033a5780820380516001836020036101000a031916815260200191505b509850505050505050505060405180910390f35b341561035957600080fd5b610361610d3f565b604051808215151515815260200191505060405180910390f35b610420600480803590602001909190803590602001908201803590602001908080601f0160208091040260200160405190810160405280939291908181526020018383808284378201915050505050509190803590602001908201803590602001908080601f01602080910402602001604051908101604052809392919081815260200183838082843782019150505050505091908035906020019091905050610d48565b005b341561042d57600080fd5b610435610e49565b6040518082815260200191505060405180910390f35b341561045657600080fd5b6104aa600480803573ffffffffffffffffffffffffffffffffffffffff1690602001909190803573ffffffffffffffffffffffffffffffffffffffff16906020019091908035906020019091905050610e59565b005b34156104b757600080fd5b610510600480803590602001908201803590602001908080601f01602080910402602001604051908101604052809392919081815260200183838082843782019150505050505091908035906020019091905050610e93565b005b341561051d57600080fd5b6105336004808035906020019091905050610ea1565b604051808273ffffffffffffffffffffffffffffffffffffffff1673ffffffffffffffffffffffffffffffffffffffff16815260200191505060405180910390f35b341561058057600080fd5b610588610ed4565b6040518082815260200191505060405180910390f35b34156105a957600080fd5b6105c86004808035906020019091908035906020019091905050610ee0565b604051808581526020018060200184815260200183151515158152602001828103825285818151815260200191508051906020019080838360005b8381101561061e578082015181840152602081019050610603565b50505050905090810190601f16801561064b5780820380516001836020036101000a031916815260200191505b509550505050505060405180910390f35b341561066757600080fd5b61067d600480803590602001909190505061101b565b604051808273ffffffffffffffffffffffffffffffffffffffff1673ffffffffffffffffffffffffffffffffffffffff16815260200191505060405180910390f35b34156106ca57600080fd5b6106e06004808035906020019091905050611094565b604051808273ffffffffffffffffffffffffffffffffffffffff1673ffffffffffffffffffffffffffffffffffffffff16815260200191505060405180910390f35b341561072d57600080fd5b610759600480803573ffffffffffffffffffffffffffffffffffffffff169060200190919050506110c7565b6040518082815260200191505060405180910390f35b341561077a57600080fd5b6107906004808035906020019091905050611110565b6040518082815260200191505060405180910390f35b34156107b157600080fd5b6107e6600480803573ffffffffffffffffffffffffffffffffffffffff16906020019091908035906020019091905050611142565b60405180831515151581526020018281526020019250505060405180910390f35b610872600480803590602001909190803590602001909190803590602001908201803590602001908080601f016020809104026020016040519081016040528093929190818152602001838380828437820191505050505050919080359060200190919050506111cd565b005b341561087f57600080fd5b61088761125c565b6040518080602001828103825283818151815260200191508051906020019080838360005b838110156108c75780820151818401526020810190506108ac565b50505050905090810190601f1680156108f45780820380516001836020036101000a031916815260200191505b509250505060405180910390f35b341561090d57600080fd5b610939600480803573ffffffffffffffffffffffffffffffffffffffff169060200190919050506112fa565b6040518082815260200191505060405180910390f35b341561095a57600080fd5b61098f600480803573ffffffffffffffffffffffffffffffffffffffff16906020019091908035906020019091905050611312565b005b341561099c57600080fd5b6109bb6004808035906020019091908035906020019091905050611372565b005b34156109c857600080fd5b6109fd600480803573ffffffffffffffffffffffffffffffffffffffff16906020019091908035906020019091905050611380565b604051808215151515815260200191505060405180910390f35b3415610a2257600080fd5b610a386004808035906020019091905050611394565b005b3415610a4557600080fd5b610a4d6113a2565b6040518082815260200191505060405180910390f35b610a7960048080359060200190919050506113b2565b005b60058054600181600116156101000203166002900480601f016020809104026020016040519081016040528092919081815260200182805460018160011615610100020316600290048015610b115780601f10610ae657610100808354040283529160200191610b11565b820191906000526020600020905b815481529060010190602001808311610af457829003601f168201915b505050505081565b610b2333826114fd565b1515610b2e57600080fd5b610b388183611569565b808273ffffffffffffffffffffffffffffffffffffffff163373ffffffffffffffffffffffffffffffffffffffff167f8c5be1e5ebec7d5bd14f71427d1e84f3dd0314c0f7b2291e5b200ac8c7c3b92560405160405180910390a45050565b6000610ba1611f70565b610ba9611f70565b600080600080600088815481101515610bbe57fe5b9060005260206000209060070201905080600001549650806001018054600181600116156101000203166002900480601f016020809104026020016040519081016040528092919081815260200182805460018160011615610100020316600290048015610c6d5780601f10610c4257610100808354040283529160200191610c6d565b820191906000526020600020905b815481529060010190602001808311610c5057829003601f168201915b50505050509550806002018054600181600116156101000203166002900480601f016020809104026020016040519081016040528092919081815260200182805460018160011615610100020316600290048015610d0c5780601f10610ce157610100808354040283529160200191610d0c565b820191906000526020600020905b815481529060010190602001808311610cef57829003601f168201915b5050505050945080600301549350806004015492508060060160009054906101000a900460ff1691505091939550919395565b60006001905090565b60008034148015610d595750813414155b15610d6357600080fd5b610d6c346115bf565b9050610d7b85848433886115d8565b50600760009054906101000a900473ffffffffffffffffffffffffffffffffffffffff1673ffffffffffffffffffffffffffffffffffffffff166108fc8234039081150290604051600060405180830381858888f193505050501515610de057600080fd5b600860009054906101000a900473ffffffffffffffffffffffffffffffffffffffff1673ffffffffffffffffffffffffffffffffffffffff166108fc829081150290604051600060405180830381858888f193505050501515610e4257600080fd5b5050505050565b6000600160008054905003905090565b610e633382611772565b1515610e6e57600080fd5b610e7883826114fd565b1515610e8357600080fd5b610e8e8383836117de565b505050565b610e9d828261199b565b5050565b60026020528060005260406000206000915054906101000a900473ffffffffffffffffffffffffffffffffffffffff1681565b60008080549050905090565b6000610eea611f70565b60008060008060008089815481101515610f0057fe5b906000526020600020906007020192508260050188815481101515610f2157fe5b9060005260206000209001549150600182815481101515610f3e57fe5b9060005260206000209060040201905080600001549650806001018054600181600116156101000203166002900480601f016020809104026020016040519081016040528092919081815260200182805460018160011615610100020316600290048015610fed5780601f10610fc257610100808354040283529160200191610fed565b820191906000526020600020905b815481529060010190602001808311610fd057829003601f168201915b50505050509550806002015494508060030160009054906101000a900460ff16935050505092959194509250565b60006002600083815260200190815260200160002060009054906101000a900473ffffffffffffffffffffffffffffffffffffffff169050600073ffffffffffffffffffffffffffffffffffffffff168173ffffffffffffffffffffffffffffffffffffffff161415151561108f57600080fd5b919050565b60046020528060005260406000206000915054906101000a900473ffffffffffffffffffffffffffffffffffffffff1681565b6000600360008373ffffffffffffffffffffffffffffffffffffffff1673ffffffffffffffffffffffffffffffffffffffff168152602001908152602001600020549050919050565b60008060008381548110151561112257fe5b906000526020600020906007020190508060050180549050915050919050565b6000806000806000600192505b611157610e49565b831115156111b85760008381548110151561116e57fe5b9060005260206000209060070201915061118887846114fd565b905085826000015414801561119a5750805b156111ab57600183945094506111c3565b828060010193505061114f565b600080809050945094505b5050509250929050565b6000341480156111dd5750803414155b156111e757600080fd5b600760009054906101000a900473ffffffffffffffffffffffffffffffffffffffff1673ffffffffffffffffffffffffffffffffffffffff166108fc349081150290604051600060405180830381858888f19350505050151561124957600080fd5b61125583838387611b1a565b5050505050565b60068054600181600116156101000203166002900480601f0160208091040260200160405190810160405280929190818152602001828054600181600116156101000203166002900480156112f25780601f106112c7576101008083540402835291602001916112f2565b820191906000526020600020905b8154815290600101906020018083116112d557829003601f168201915b505050505081565b60036020528060005260406000206000915090505481565b600073ffffffffffffffffffffffffffffffffffffffff168273ffffffffffffffffffffffffffffffffffffffff161415151561134e57600080fd5b61135833826114fd565b151561136357600080fd5b61136e3383836117de565b5050565b61137c8282611c66565b5050565b600061138c83836114fd565b905092915050565b61139f600182611dd5565b50565b6000600160008054905003905090565b6000806000806000858154811015156113c757fe5b906000526020600020906007020193506113e48460040154611f57565b92506000341480156113fa575083600401543414155b1561140457600080fd5b82340391506002600086815260200190815260200160002060009054906101000a900473ffffffffffffffffffffffffffffffffffffffff1690506114498533611569565b611454813387610e59565b8073ffffffffffffffffffffffffffffffffffffffff166108fc839081150290604051600060405180830381858888f19350505050151561149457600080fd5b600760009054906101000a900473ffffffffffffffffffffffffffffffffffffffff1673ffffffffffffffffffffffffffffffffffffffff166108fc849081150290604051600060405180830381858888f1935050505015156114f657600080fd5b5050505050565b60008273ffffffffffffffffffffffffffffffffffffffff166002600084815260200190815260200160002060009054906101000a900473ffffffffffffffffffffffffffffffffffffffff1673ffffffffffffffffffffffffffffffffffffffff1614905092915050565b806004600084815260200190815260200160002060006101000a81548173ffffffffffffffffffffffffffffffffffffffff021916908373ffffffffffffffffffffffffffffffffffffffff1602179055505050565b60006064601983028115156115d057fe5b049050919050565b60006115e2611f84565b600060e060405190810160405280898152602001858152602001888152602001878152602001878152602001600060405180591061161d5750595b908082528060200260200182016040525081526020016000151581525091506001600080548060010182816116529190611fd6565b9160005260206000209060070201600085909190915060008201518160000155602082015181600101908051906020019061168e929190612008565b5060408201518160020190805190602001906116ab929190612008565b50606082015181600301556080820151816004015560a08201518160050190805190602001906116dc929190612088565b5060c08201518160060160006101000a81548160ff02191690831515021790555050500390508473ffffffffffffffffffffffffffffffffffffffff167f0c42492e9a23edb18d7a10ab834f9871ecd80970bffc97312a8a1c05b88e807d828a604051808381526020018281526020019250505060405180910390a2611764600086836117de565b809250505095945050505050565b60008273ffffffffffffffffffffffffffffffffffffffff166004600084815260200190815260200160002060009054906101000a900473ffffffffffffffffffffffffffffffffffffffff1673ffffffffffffffffffffffffffffffffffffffff1614905092915050565b600360008373ffffffffffffffffffffffffffffffffffffffff1673ffffffffffffffffffffffffffffffffffffffff16815260200190815260200160002060008154809291906001019190505550816002600083815260200190815260200160002060006101000a81548173ffffffffffffffffffffffffffffffffffffffff021916908373ffffffffffffffffffffffffffffffffffffffff160217905550600073ffffffffffffffffffffffffffffffffffffffff168373ffffffffffffffffffffffffffffffffffffffff1614151561193c57600360008473ffffffffffffffffffffffffffffffffffffffff1673ffffffffffffffffffffffffffffffffffffffff16815260200190815260200160002060008154809291906001900391905055506004600082815260200190815260200160002060006101000a81549073ffffffffffffffffffffffffffffffffffffffff02191690555b8173ffffffffffffffffffffffffffffffffffffffff168373ffffffffffffffffffffffffffffffffffffffff167f4853ae1b4d437c4255ac16cd3ceda3465975023f27cb141584cd9d44440fed8260405160405180910390a3505050565b60003373ffffffffffffffffffffffffffffffffffffffff166002600084815260200190815260200160002060009054906101000a900473ffffffffffffffffffffffffffffffffffffffff1673ffffffffffffffffffffffffffffffffffffffff16141515611a0a57600080fd5b600082815481101515611a1957fe5b9060005260206000209060070201905082816001019080519060200190611a419291906120d5565b5080600083815481101515611a5257fe5b90600052602060002090600702016000820154816000015560018201816001019080546001816001161561010002031660029004611a91929190612155565b5060028201816002019080546001816001161561010002031660029004611ab9929190612155565b5060038201548160030155600482015481600401556005820181600501908054611ae49291906121dc565b506006820160009054906101000a900460ff168160060160006101000a81548160ff021916908315150217905550905050505050565b6000611b2461222e565b600080608060405190810160405280898152602001888152602001878152602001600115158152509250600085815481101515611b5d57fe5b906000526020600020906007020191506001808054806001018281611b82919061225f565b91600052602060002090600402016000869091909150600082015181600001556020820151816001019080519060200190611bbe929190612008565b506040820151816002015560608201518160030160006101000a81548160ff0219169083151502179055505050039050816005018054806001018281611c049190612291565b9160005260206000209001600083909190915055507ff0ffca35b511bed10469e2d7791c6984b99d8ba99f41f461fc68599f980e40978582604051808381526020018281526020019250505060405180910390a1809350505050949350505050565b60003373ffffffffffffffffffffffffffffffffffffffff166002600084815260200190815260200160002060009054906101000a900473ffffffffffffffffffffffffffffffffffffffff1673ffffffffffffffffffffffffffffffffffffffff16141515611cd557600080fd5b600082815481101515611ce457fe5b9060005260206000209060070201905082816004018190555080600083815481101515611d0d57fe5b90600052602060002090600702016000820154816000015560018201816001019080546001816001161561010002031660029004611d4c929190612155565b5060028201816002019080546001816001161561010002031660029004611d74929190612155565b5060038201548160030155600482015481600401556005820181600501908054611d9f9291906121dc565b506006820160009054906101000a900460ff168160060160006101000a81548160ff021916908315150217905550905050505050565b60003373ffffffffffffffffffffffffffffffffffffffff166002600084815260200190815260200160002060009054906101000a900473ffffffffffffffffffffffffffffffffffffffff1673ffffffffffffffffffffffffffffffffffffffff16141515611e4457600080fd5b600082815481101515611e5357fe5b90600052602060002090600702019050828160060160006101000a81548160ff02191690831515021790555080600083815481101515611e8f57fe5b90600052602060002090600702016000820154816000015560018201816001019080546001816001161561010002031660029004611ece929190612155565b5060028201816002019080546001816001161561010002031660029004611ef6929190612155565b5060038201548160030155600482015481600401556005820181600501908054611f219291906121dc565b506006820160009054906101000a900460ff168160060160006101000a81548160ff021916908315150217905550905050505050565b60006064600a8302811515611f6857fe5b049050919050565b602060405190810160405280600081525090565b60e06040519081016040528060008152602001611f9f6122bd565b8152602001611fac6122bd565b81526020016000815260200160008152602001611fc76122d1565b81526020016000151581525090565b8154818355818115116120035760070281600702836000526020600020918201910161200291906122e5565b5b505050565b828054600181600116156101000203166002900490600052602060002090601f016020900481019282601f1061204957805160ff1916838001178555612077565b82800160010185558215612077579182015b8281111561207657825182559160200191906001019061205b565b5b5090506120849190612360565b5090565b8280548282559060005260206000209081019282156120c4579160200282015b828111156120c35782518255916020019190600101906120a8565b5b5090506120d19190612360565b5090565b828054600181600116156101000203166002900490600052602060002090601f016020900481019282601f1061211657805160ff1916838001178555612144565b82800160010185558215612144579182015b82811115612143578251825591602001919060010190612128565b5b5090506121519190612360565b5090565b828054600181600116156101000203166002900490600052602060002090601f016020900481019282601f1061218e57805485556121cb565b828001600101855582156121cb57600052602060002091601f016020900482015b828111156121ca5782548255916001019190600101906121af565b5b5090506121d89190612360565b5090565b82805482825590600052602060002090810192821561221d5760005260206000209182015b8281111561221c578254825591600101919060010190612201565b5b50905061222a9190612360565b5090565b608060405190810160405280600081526020016122496122bd565b8152602001600081526020016000151581525090565b81548183558181151161228c5760040281600402836000526020600020918201910161228b9190612385565b5b505050565b8154818355818115116122b8578183600052602060002091820191016122b79190612360565b5b505050565b602060405190810160405280600081525090565b602060405190810160405280600081525090565b61235d91905b808211156123595760008082016000905560018201600061230c91906123d8565b60028201600061231c91906123d8565b6003820160009055600482016000905560058201600061233c9190612420565b6006820160006101000a81549060ff0219169055506007016122eb565b5090565b90565b61238291905b8082111561237e576000816000905550600101612366565b5090565b90565b6123d591905b808211156123d1576000808201600090556001820160006123ac91906123d8565b60028201600090556003820160006101000a81549060ff02191690555060040161238b565b5090565b90565b50805460018160011615610100020316600290046000825580601f106123fe575061241d565b601f01602090049060005260206000209081019061241c9190612360565b5b50565b508054600082559060005260206000209081019061243e9190612360565b505600a165627a7a723058207b0ee0b2297676a33d0675ccfa498ef129598a89fe6b58a7c79b2ed06e070f290029",
  "source": "pragma solidity ^0.4.18;\n\nimport \"./TittyOwnership.sol\";\n\ncontract TittyPurchase is TittyOwnership {\n\n    address private wallet;\n    address private boat;\n\n    function TittyPurchase(address _wallet, address _boat) public {\n        wallet = _wallet;\n        boat = _boat;\n\n        createTitty(0, \"unissex\", 1000000000, address(0), \"genesis\");\n    }\n\n    function purchaseNew(uint256 _id, string _name, string _gender, uint256 _price) public payable {\n\n        if (msg.value == 0 && msg.value != _price)\n            revert();\n\n        uint256 boatFee = calculateBoatFee(msg.value);\n        createTitty(_id, _gender, _price, msg.sender, _name);\n        wallet.transfer(msg.value - boatFee);\n        boat.transfer(boatFee);\n\n    }\n\n    function purchaseExistent(uint256 _tittyId) public payable {\n\n        Titty storage titty = Titties[_tittyId];\n        uint256 fee = calculateFee(titty.salePrice);\n        if (msg.value == 0 && msg.value != titty.salePrice)\n            revert();\n        \n        uint256 val = msg.value - fee;\n        address owner = tittyIndexToOwner[_tittyId];\n        _approve(_tittyId, msg.sender);\n        transferFrom(owner, msg.sender, _tittyId);\n        owner.transfer(val);\n        wallet.transfer(fee);\n\n    }\n\n    function purchaseAccessory(uint256 _tittyId, uint256 _accId, string _name, uint256 _price) public payable {\n\n        if (msg.value == 0 && msg.value != _price)\n            revert();\n\n        wallet.transfer(msg.value);\n        addAccessory(_accId, _name, _price,  _tittyId);\n        \n        \n    }\n\n    function getAmountOfTitties() public view returns(uint) {\n        return Titties.length;\n    }\n\n    function getLatestId() public view returns (uint) {\n        return Titties.length - 1;\n    }\n\n    function getTittyByWpId(address _owner, uint256 _wpId) public view returns (bool own, uint256 tittyId) {\n        \n        for (uint256 i = 1; i<=totalSupply(); i++) {\n            Titty storage titty = Titties[i];\n            bool isOwner = _isOwner(_owner, i);\n            if (titty.id == _wpId && isOwner) {\n                return (true, i);\n            }\n        }\n        \n        return (false, 0);\n    }\n\n    function belongsTo(address _account, uint256 _tittyId) public view returns (bool) {\n        return _isOwner(_account, _tittyId);\n    }\n\n    function changePrice(uint256 _price, uint256 _tittyId) public {\n        _changeTittyPrice(_price, _tittyId);\n    }\n\n    function changeName(string _name, uint256 _tittyId) public {\n        _changeName(_name, _tittyId);\n    }\n\n    function makeItSellable(uint256 _tittyId) public {\n        _setTittyForSale(true, _tittyId);\n    }\n\n    function calculateFee (uint256 _price) internal pure returns(uint) {\n        return (_price * 10)/100;\n    }\n\n    function calculateBoatFee (uint256 _price) internal pure returns(uint) {\n        return (_price * 25)/100;\n    }\n\n    function() external {}\n\n    function getATitty(uint256 _tittyId)\n        public \n        view \n        returns (\n        uint256 id,\n        string name,\n        string gender,\n        uint256 originalPrice,\n        uint256 salePrice,\n        bool forSale\n        ) {\n\n            Titty storage titty = Titties[_tittyId];\n            id = titty.id;\n            name = titty.name;\n            gender = titty.gender;\n            originalPrice = titty.originalPrice;\n            salePrice = titty.salePrice;\n            forSale = titty.forSale;\n        }\n\n}",
  "sourcePath": "/Users/rogerssampaio/Sites/cryptotitties/contracts/TittyPurchase.sol",
  "compiler": {
    "name": "solc",
    "version": "0.4.18+commit.9cf6e910.Emscripten.clang"
  },
  "schemaVersion": "1.0.1",
  "updatedAt": "2018-03-09T13:48:07.310Z"
}