{
  "contractName": "TittyPurchase",
  "abi": [
    {
      "constant": true,
      "inputs": [],
      "name": "name",
      "outputs": [
        {
          "name": "",
          "type": "string"
        }
      ],
      "payable": false,
      "stateMutability": "view",
      "type": "function"
    },
    {
      "constant": false,
      "inputs": [
        {
          "name": "_to",
          "type": "address"
        },
        {
          "name": "_tokenId",
          "type": "uint256"
        }
      ],
      "name": "approve",
      "outputs": [],
      "payable": false,
      "stateMutability": "nonpayable",
      "type": "function"
    },
    {
      "constant": true,
      "inputs": [
        {
          "name": "_tittyId",
          "type": "uint256"
        }
      ],
      "name": "getATitty",
      "outputs": [
        {
          "name": "id",
          "type": "uint256"
        },
        {
          "name": "name",
          "type": "string"
        },
        {
          "name": "gender",
          "type": "string"
        },
        {
          "name": "price",
          "type": "uint256"
        },
        {
          "name": "forSale",
          "type": "bool"
        },
        {
          "name": "likes",
          "type": "uint256"
        }
      ],
      "payable": false,
      "stateMutability": "view",
      "type": "function"
    },
    {
      "constant": true,
      "inputs": [],
      "name": "implementsERC721",
      "outputs": [
        {
          "name": "",
          "type": "bool"
        }
      ],
      "payable": false,
      "stateMutability": "pure",
      "type": "function"
    },
    {
      "constant": false,
      "inputs": [
        {
          "name": "_id",
          "type": "uint256"
        },
        {
          "name": "_name",
          "type": "string"
        },
        {
          "name": "_gender",
          "type": "string"
        },
        {
          "name": "_price",
          "type": "uint256"
        }
      ],
      "name": "purchaseNew",
      "outputs": [],
      "payable": true,
      "stateMutability": "payable",
      "type": "function"
    },
    {
      "constant": true,
      "inputs": [],
      "name": "totalSupply",
      "outputs": [
        {
          "name": "total",
          "type": "uint256"
        }
      ],
      "payable": false,
      "stateMutability": "view",
      "type": "function"
    },
    {
      "constant": false,
      "inputs": [
        {
          "name": "_from",
          "type": "address"
        },
        {
          "name": "_to",
          "type": "address"
        },
        {
          "name": "_tokenId",
          "type": "uint256"
        }
      ],
      "name": "transferFrom",
      "outputs": [],
      "payable": false,
      "stateMutability": "nonpayable",
      "type": "function"
    },
    {
      "constant": true,
      "inputs": [
        {
          "name": "",
          "type": "uint256"
        }
      ],
      "name": "tittyIndexToOwner",
      "outputs": [
        {
          "name": "",
          "type": "address"
        }
      ],
      "payable": false,
      "stateMutability": "view",
      "type": "function"
    },
    {
      "constant": true,
      "inputs": [],
      "name": "getAmountOfTitties",
      "outputs": [
        {
          "name": "",
          "type": "uint256"
        }
      ],
      "payable": false,
      "stateMutability": "view",
      "type": "function"
    },
    {
      "constant": true,
      "inputs": [
        {
          "name": "_tokenId",
          "type": "uint256"
        }
      ],
      "name": "ownerOf",
      "outputs": [
        {
          "name": "owner",
          "type": "address"
        }
      ],
      "payable": false,
      "stateMutability": "view",
      "type": "function"
    },
    {
      "constant": true,
      "inputs": [
        {
          "name": "",
          "type": "uint256"
        }
      ],
      "name": "tittyApproveIndex",
      "outputs": [
        {
          "name": "",
          "type": "address"
        }
      ],
      "payable": false,
      "stateMutability": "view",
      "type": "function"
    },
    {
      "constant": true,
      "inputs": [
        {
          "name": "_owner",
          "type": "address"
        }
      ],
      "name": "balanceOf",
      "outputs": [
        {
          "name": "balance",
          "type": "uint256"
        }
      ],
      "payable": false,
      "stateMutability": "view",
      "type": "function"
    },
    {
      "constant": true,
      "inputs": [
        {
          "name": "_owner",
          "type": "address"
        },
        {
          "name": "_wpId",
          "type": "uint256"
        }
      ],
      "name": "getTittyByWpId",
      "outputs": [
        {
          "name": "own",
          "type": "bool"
        },
        {
          "name": "tittyId",
          "type": "uint256"
        }
      ],
      "payable": false,
      "stateMutability": "view",
      "type": "function"
    },
    {
      "constant": true,
      "inputs": [],
      "name": "symbol",
      "outputs": [
        {
          "name": "",
          "type": "string"
        }
      ],
      "payable": false,
      "stateMutability": "view",
      "type": "function"
    },
    {
      "constant": true,
      "inputs": [
        {
          "name": "",
          "type": "address"
        }
      ],
      "name": "ownerTittiesCount",
      "outputs": [
        {
          "name": "",
          "type": "uint256"
        }
      ],
      "payable": false,
      "stateMutability": "view",
      "type": "function"
    },
    {
      "constant": false,
      "inputs": [
        {
          "name": "_to",
          "type": "address"
        },
        {
          "name": "_tokenId",
          "type": "uint256"
        }
      ],
      "name": "transfer",
      "outputs": [],
      "payable": false,
      "stateMutability": "nonpayable",
      "type": "function"
    },
    {
      "constant": false,
      "inputs": [
        {
          "name": "_tittyId",
          "type": "uint256"
        },
        {
          "name": "_amount",
          "type": "uint256"
        }
      ],
      "name": "like",
      "outputs": [],
      "payable": true,
      "stateMutability": "payable",
      "type": "function"
    },
    {
      "constant": false,
      "inputs": [
        {
          "name": "_price",
          "type": "uint256"
        },
        {
          "name": "_tittyId",
          "type": "uint256"
        }
      ],
      "name": "changePrice",
      "outputs": [],
      "payable": false,
      "stateMutability": "nonpayable",
      "type": "function"
    },
    {
      "constant": true,
      "inputs": [
        {
          "name": "_account",
          "type": "address"
        },
        {
          "name": "_tittyId",
          "type": "uint256"
        }
      ],
      "name": "belongsTo",
      "outputs": [
        {
          "name": "",
          "type": "bool"
        }
      ],
      "payable": false,
      "stateMutability": "view",
      "type": "function"
    },
    {
      "constant": false,
      "inputs": [
        {
          "name": "_tittyId",
          "type": "uint256"
        }
      ],
      "name": "makeItSellable",
      "outputs": [],
      "payable": false,
      "stateMutability": "nonpayable",
      "type": "function"
    },
    {
      "constant": true,
      "inputs": [],
      "name": "getLatestId",
      "outputs": [
        {
          "name": "",
          "type": "uint256"
        }
      ],
      "payable": false,
      "stateMutability": "view",
      "type": "function"
    },
    {
      "constant": false,
      "inputs": [
        {
          "name": "_tittyId",
          "type": "uint256"
        }
      ],
      "name": "purchaseExistent",
      "outputs": [],
      "payable": true,
      "stateMutability": "payable",
      "type": "function"
    },
    {
      "inputs": [
        {
          "name": "_charity",
          "type": "address"
        },
        {
          "name": "_wallet",
          "type": "address"
        },
        {
          "name": "_boat",
          "type": "address"
        }
      ],
      "payable": false,
      "stateMutability": "nonpayable",
      "type": "constructor"
    },
    {
      "payable": false,
      "stateMutability": "nonpayable",
      "type": "fallback"
    },
    {
      "anonymous": false,
      "inputs": [
        {
          "indexed": true,
          "name": "from",
          "type": "address"
        },
        {
          "indexed": true,
          "name": "to",
          "type": "address"
        },
        {
          "indexed": true,
          "name": "tokenId",
          "type": "uint256"
        }
      ],
      "name": "Transfer",
      "type": "event"
    },
    {
      "anonymous": false,
      "inputs": [
        {
          "indexed": true,
          "name": "owner",
          "type": "address"
        },
        {
          "indexed": true,
          "name": "approved",
          "type": "address"
        },
        {
          "indexed": true,
          "name": "tokenId",
          "type": "uint256"
        }
      ],
      "name": "Approval",
      "type": "event"
    },
    {
      "anonymous": false,
      "inputs": [
        {
          "indexed": true,
          "name": "from",
          "type": "address"
        },
        {
          "indexed": true,
          "name": "to",
          "type": "address"
        }
      ],
      "name": "Transfer",
      "type": "event"
    },
    {
      "anonymous": false,
      "inputs": [
        {
          "indexed": true,
          "name": "from",
          "type": "address"
        },
        {
          "indexed": false,
          "name": "tittyId",
          "type": "uint256"
        },
        {
          "indexed": false,
          "name": "wpId",
          "type": "uint256"
        }
      ],
      "name": "Creation",
      "type": "event"
    }
  ],
  "bytecode": "0x60606040526040805190810160405280600c81526020017f43727970746f5469747465730000000000000000000000000000000000000000815250600490805190602001906200005192919062000570565b506040805190810160405280600281526020017f4354000000000000000000000000000000000000000000000000000000000000815250600590805190602001906200009f92919062000570565b503415620000ac57600080fd5b6040516060806200250c8339810160405280805190602001909190805190602001909190805190602001909190505082600660006101000a81548173ffffffffffffffffffffffffffffffffffffffff021916908373ffffffffffffffffffffffffffffffffffffffff16021790555081600760006101000a81548173ffffffffffffffffffffffffffffffffffffffff021916908373ffffffffffffffffffffffffffffffffffffffff16021790555080600860006101000a81548173ffffffffffffffffffffffffffffffffffffffff021916908373ffffffffffffffffffffffffffffffffffffffff1602179055506200023160006040805190810160405280600781526020017f756e697373657800000000000000000000000000000000000000000000000000815250633b9aca0060006040805190810160405280600781526020017f67656e65736973000000000000000000000000000000000000000000000000008152506200023b64010000000002620012f5176401000000009004565b50505050620007f6565b600062000247620005f7565b600060c0604051908101604052808981526020018581526020018881526020018781526020016000151581526020016000815250915060016000805480600101828162000295919062000640565b91600052602060002090600602016000859091909150600082015181600001556020820151816001019080519060200190620002d392919062000675565b506040820151816002019080519060200190620002f292919062000675565b506060820151816003015560808201518160040160006101000a81548160ff02191690831515021790555060a0820151816005015550500390508473ffffffffffffffffffffffffffffffffffffffff167f0c42492e9a23edb18d7a10ab834f9871ecd80970bffc97312a8a1c05b88e807d828a604051808381526020018281526020019250505060405180910390a2620003a460008683620003b264010000000002620014ba176401000000009004565b809250505095945050505050565b600260008373ffffffffffffffffffffffffffffffffffffffff1673ffffffffffffffffffffffffffffffffffffffff16815260200190815260200160002060008154809291906001019190505550816001600083815260200190815260200160002060006101000a81548173ffffffffffffffffffffffffffffffffffffffff021916908373ffffffffffffffffffffffffffffffffffffffff160217905550600073ffffffffffffffffffffffffffffffffffffffff168373ffffffffffffffffffffffffffffffffffffffff161415156200051157600260008473ffffffffffffffffffffffffffffffffffffffff1673ffffffffffffffffffffffffffffffffffffffff16815260200190815260200160002060008154809291906001900391905055506003600082815260200190815260200160002060006101000a81549073ffffffffffffffffffffffffffffffffffffffff02191690555b8173ffffffffffffffffffffffffffffffffffffffff168373ffffffffffffffffffffffffffffffffffffffff167f4853ae1b4d437c4255ac16cd3ceda3465975023f27cb141584cd9d44440fed8260405160405180910390a3505050565b828054600181600116156101000203166002900490600052602060002090601f016020900481019282601f10620005b357805160ff1916838001178555620005e4565b82800160010185558215620005e4579182015b82811115620005e3578251825591602001919060010190620005c6565b5b509050620005f39190620006fc565b5090565b60c060405190810160405280600081526020016200061462000724565b81526020016200062362000724565b815260200160008152602001600015158152602001600081525090565b81548183558181151162000670576006028160060283600052602060002091820191016200066f919062000738565b5b505050565b828054600181600116156101000203166002900490600052602060002090601f016020900481019282601f10620006b857805160ff1916838001178555620006e9565b82800160010185558215620006e9579182015b82811115620006e8578251825591602001919060010190620006cb565b5b509050620006f89190620006fc565b5090565b6200072191905b808211156200071d57600081600090555060010162000703565b5090565b90565b602060405190810160405280600081525090565b620007a791905b80821115620007a357600080820160009055600182016000620007639190620007aa565b600282016000620007759190620007aa565b60038201600090556004820160006101000a81549060ff02191690556005820160009055506006016200073f565b5090565b90565b50805460018160011615610100020316600290046000825580601f10620007d25750620007f3565b601f016020900490600052602060002090810190620007f29190620006fc565b5b50565b611d0680620008066000396000f300606060405260043610610128576000357c0100000000000000000000000000000000000000000000000000000000900463ffffffff16806306fdde0314610135578063095ea7b3146101c35780630a68f374146102055780631051db341461032d5780631626315c1461035a57806318160ddd1461040157806323b872dd1461042a578063396878701461048b5780633f5a9e22146104ee5780636352211e146105175780636c5eb3821461057a57806370a08231146105dd578063827c1e411461062a57806395d89b411461068b5780639743246514610719578063a9059cbb14610766578063b2345458146107a8578063b3de019c146107c9578063da0225db146107f5578063ee2ef6ec1461084f578063eff91c7e14610872578063f7f594111461089b575b341561013357600080fd5b005b341561014057600080fd5b6101486108b3565b6040518080602001828103825283818151815260200191508051906020019080838360005b8381101561018857808201518184015260208101905061016d565b50505050905090810190601f1680156101b55780820380516001836020036101000a031916815260200191505b509250505060405180910390f35b34156101ce57600080fd5b610203600480803573ffffffffffffffffffffffffffffffffffffffff16906020019091908035906020019091905050610951565b005b341561021057600080fd5b61022660048080359060200190919050506109cf565b60405180878152602001806020018060200186815260200185151515158152602001848152602001838103835288818151815260200191508051906020019080838360005b8381101561028657808201518184015260208101905061026b565b50505050905090810190601f1680156102b35780820380516001836020036101000a031916815260200191505b50838103825287818151815260200191508051906020019080838360005b838110156102ec5780820151818401526020810190506102d1565b50505050905090810190601f1680156103195780820380516001836020036101000a031916815260200191505b509850505050505050505060405180910390f35b341561033857600080fd5b610340610b77565b604051808215151515815260200191505060405180910390f35b6103ff600480803590602001909190803590602001908201803590602001908080601f0160208091040260200160405190810160405280939291908181526020018383808284378201915050505050509190803590602001908201803590602001908080601f01602080910402602001604051908101604052809392919081815260200183838082843782019150505050505091908035906020019091905050610b80565b005b341561040c57600080fd5b610414610c81565b6040518082815260200191505060405180910390f35b341561043557600080fd5b610489600480803573ffffffffffffffffffffffffffffffffffffffff1690602001909190803573ffffffffffffffffffffffffffffffffffffffff16906020019091908035906020019091905050610c91565b005b341561049657600080fd5b6104ac6004808035906020019091905050610ccb565b604051808273ffffffffffffffffffffffffffffffffffffffff1673ffffffffffffffffffffffffffffffffffffffff16815260200191505060405180910390f35b34156104f957600080fd5b610501610cfe565b6040518082815260200191505060405180910390f35b341561052257600080fd5b6105386004808035906020019091905050610d0a565b604051808273ffffffffffffffffffffffffffffffffffffffff1673ffffffffffffffffffffffffffffffffffffffff16815260200191505060405180910390f35b341561058557600080fd5b61059b6004808035906020019091905050610d83565b604051808273ffffffffffffffffffffffffffffffffffffffff1673ffffffffffffffffffffffffffffffffffffffff16815260200191505060405180910390f35b34156105e857600080fd5b610614600480803573ffffffffffffffffffffffffffffffffffffffff16906020019091905050610db6565b6040518082815260200191505060405180910390f35b341561063557600080fd5b61066a600480803573ffffffffffffffffffffffffffffffffffffffff16906020019091908035906020019091905050610dff565b60405180831515151581526020018281526020019250505060405180910390f35b341561069657600080fd5b61069e610e8a565b6040518080602001828103825283818151815260200191508051906020019080838360005b838110156106de5780820151818401526020810190506106c3565b50505050905090810190601f16801561070b5780820380516001836020036101000a031916815260200191505b509250505060405180910390f35b341561072457600080fd5b610750600480803573ffffffffffffffffffffffffffffffffffffffff16906020019091905050610f28565b6040518082815260200191505060405180910390f35b341561077157600080fd5b6107a6600480803573ffffffffffffffffffffffffffffffffffffffff16906020019091908035906020019091905050610f40565b005b6107c76004808035906020019091908035906020019091905050610fa0565b005b34156107d457600080fd5b6107f3600480803590602001909190803590602001909190505061108f565b005b341561080057600080fd5b610835600480803573ffffffffffffffffffffffffffffffffffffffff1690602001909190803590602001909190505061109d565b604051808215151515815260200191505060405180910390f35b341561085a57600080fd5b61087060048080359060200190919050506110b1565b005b341561087d57600080fd5b6108856110bf565b6040518082815260200191505060405180910390f35b6108b160048080359060200190919050506110cf565b005b60048054600181600116156101000203166002900480601f0160208091040260200160405190810160405280929190818152602001828054600181600116156101000203166002900480156109495780601f1061091e57610100808354040283529160200191610949565b820191906000526020600020905b81548152906001019060200180831161092c57829003601f168201915b505050505081565b61095b338261121a565b151561096657600080fd5b6109708183611286565b808273ffffffffffffffffffffffffffffffffffffffff163373ffffffffffffffffffffffffffffffffffffffff167f8c5be1e5ebec7d5bd14f71427d1e84f3dd0314c0f7b2291e5b200ac8c7c3b92560405160405180910390a45050565b60006109d9611a5c565b6109e1611a5c565b6000806000806000888154811015156109f657fe5b9060005260206000209060060201905080600001549650806001018054600181600116156101000203166002900480601f016020809104026020016040519081016040528092919081815260200182805460018160011615610100020316600290048015610aa55780601f10610a7a57610100808354040283529160200191610aa5565b820191906000526020600020905b815481529060010190602001808311610a8857829003601f168201915b50505050509550806002018054600181600116156101000203166002900480601f016020809104026020016040519081016040528092919081815260200182805460018160011615610100020316600290048015610b445780601f10610b1957610100808354040283529160200191610b44565b820191906000526020600020905b815481529060010190602001808311610b2757829003601f168201915b50505050509450806003015493508060040160009054906101000a900460ff169250806005015491505091939550919395565b60006001905090565b60008034148015610b915750813414155b15610b9b57600080fd5b610ba4346112dc565b9050610bb385848433886112f5565b50600760009054906101000a900473ffffffffffffffffffffffffffffffffffffffff1673ffffffffffffffffffffffffffffffffffffffff166108fc8234039081150290604051600060405180830381858888f193505050501515610c1857600080fd5b600860009054906101000a900473ffffffffffffffffffffffffffffffffffffffff1673ffffffffffffffffffffffffffffffffffffffff166108fc829081150290604051600060405180830381858888f193505050501515610c7a57600080fd5b5050505050565b6000600160008054905003905090565b610c9b338261144e565b1515610ca657600080fd5b610cb0838261121a565b1515610cbb57600080fd5b610cc68383836114ba565b505050565b60016020528060005260406000206000915054906101000a900473ffffffffffffffffffffffffffffffffffffffff1681565b60008080549050905090565b60006001600083815260200190815260200160002060009054906101000a900473ffffffffffffffffffffffffffffffffffffffff169050600073ffffffffffffffffffffffffffffffffffffffff168173ffffffffffffffffffffffffffffffffffffffff1614151515610d7e57600080fd5b919050565b60036020528060005260406000206000915054906101000a900473ffffffffffffffffffffffffffffffffffffffff1681565b6000600260008373ffffffffffffffffffffffffffffffffffffffff1673ffffffffffffffffffffffffffffffffffffffff168152602001908152602001600020549050919050565b6000806000806000600192505b610e14610c81565b83111515610e7557600083815481101515610e2b57fe5b90600052602060002090600602019150610e45878461121a565b9050858260000154148015610e575750805b15610e685760018394509450610e80565b8280600101935050610e0c565b600080809050945094505b5050509250929050565b60058054600181600116156101000203166002900480601f016020809104026020016040519081016040528092919081815260200182805460018160011615610100020316600290048015610f205780601f10610ef557610100808354040283529160200191610f20565b820191906000526020600020905b815481529060010190602001808311610f0357829003601f168201915b505050505081565b60026020528060005260406000206000915090505481565b600073ffffffffffffffffffffffffffffffffffffffff168273ffffffffffffffffffffffffffffffffffffffff1614151515610f7c57600080fd5b610f86338261121a565b1515610f9157600080fd5b610f9c3383836114ba565b5050565b600080341015610faf57600080fd5b610fb834611677565b9050600660009054906101000a900473ffffffffffffffffffffffffffffffffffffffff1673ffffffffffffffffffffffffffffffffffffffff166108fc829081150290604051600060405180830381858888f19350505050151561101c57600080fd5b600760009054906101000a900473ffffffffffffffffffffffffffffffffffffffff1673ffffffffffffffffffffffffffffffffffffffff166108fc8234039081150290604051600060405180830381858888f19350505050151561108057600080fd5b61108a8383611690565b505050565b6110998282611780565b5050565b60006110a9838361121a565b905092915050565b6110bc6001826118d8565b50565b6000600160008054905003905090565b6000806000806000858154811015156110e457fe5b906000526020600020906006020193506111018460030154611a43565b9250600034148015611117575083600301543414155b1561112157600080fd5b82340391506001600086815260200190815260200160002060009054906101000a900473ffffffffffffffffffffffffffffffffffffffff1690506111668533611286565b611171813387610c91565b8073ffffffffffffffffffffffffffffffffffffffff166108fc839081150290604051600060405180830381858888f1935050505015156111b157600080fd5b600760009054906101000a900473ffffffffffffffffffffffffffffffffffffffff1673ffffffffffffffffffffffffffffffffffffffff166108fc849081150290604051600060405180830381858888f19350505050151561121357600080fd5b5050505050565b60008273ffffffffffffffffffffffffffffffffffffffff166001600084815260200190815260200160002060009054906101000a900473ffffffffffffffffffffffffffffffffffffffff1673ffffffffffffffffffffffffffffffffffffffff1614905092915050565b806003600084815260200190815260200160002060006101000a81548173ffffffffffffffffffffffffffffffffffffffff021916908373ffffffffffffffffffffffffffffffffffffffff1602179055505050565b60006064601983028115156112ed57fe5b049050919050565b60006112ff611a70565b600060c0604051908101604052808981526020018581526020018881526020018781526020016000151581526020016000815250915060016000805480600101828161134b9190611ab5565b91600052602060002090600602016000859091909150600082015181600001556020820151816001019080519060200190611387929190611ae7565b5060408201518160020190805190602001906113a4929190611ae7565b506060820151816003015560808201518160040160006101000a81548160ff02191690831515021790555060a0820151816005015550500390508473ffffffffffffffffffffffffffffffffffffffff167f0c42492e9a23edb18d7a10ab834f9871ecd80970bffc97312a8a1c05b88e807d828a604051808381526020018281526020019250505060405180910390a2611440600086836114ba565b809250505095945050505050565b60008273ffffffffffffffffffffffffffffffffffffffff166003600084815260200190815260200160002060009054906101000a900473ffffffffffffffffffffffffffffffffffffffff1673ffffffffffffffffffffffffffffffffffffffff1614905092915050565b600260008373ffffffffffffffffffffffffffffffffffffffff1673ffffffffffffffffffffffffffffffffffffffff16815260200190815260200160002060008154809291906001019190505550816001600083815260200190815260200160002060006101000a81548173ffffffffffffffffffffffffffffffffffffffff021916908373ffffffffffffffffffffffffffffffffffffffff160217905550600073ffffffffffffffffffffffffffffffffffffffff168373ffffffffffffffffffffffffffffffffffffffff1614151561161857600260008473ffffffffffffffffffffffffffffffffffffffff1673ffffffffffffffffffffffffffffffffffffffff16815260200190815260200160002060008154809291906001900391905055506003600082815260200190815260200160002060006101000a81549073ffffffffffffffffffffffffffffffffffffffff02191690555b8173ffffffffffffffffffffffffffffffffffffffff168373ffffffffffffffffffffffffffffffffffffffff167f4853ae1b4d437c4255ac16cd3ceda3465975023f27cb141584cd9d44440fed8260405160405180910390a3505050565b600060646046830281151561168857fe5b049050919050565b600080838154811015156116a057fe5b90600052602060002090600602019050818160050154018160050181905550806000848154811015156116cf57fe5b9060005260206000209060060201600082015481600001556001820181600101908054600181600116156101000203166002900461170e929190611b67565b5060028201816002019080546001816001161561010002031660029004611736929190611b67565b50600382015481600301556004820160009054906101000a900460ff168160040160006101000a81548160ff02191690831515021790555060058201548160050155905050505050565b60003373ffffffffffffffffffffffffffffffffffffffff166001600084815260200190815260200160002060009054906101000a900473ffffffffffffffffffffffffffffffffffffffff1673ffffffffffffffffffffffffffffffffffffffff161415156117ef57600080fd5b6000828154811015156117fe57fe5b906000526020600020906006020190508281600301819055508060008381548110151561182757fe5b90600052602060002090600602016000820154816000015560018201816001019080546001816001161561010002031660029004611866929190611b67565b506002820181600201908054600181600116156101000203166002900461188e929190611b67565b50600382015481600301556004820160009054906101000a900460ff168160040160006101000a81548160ff02191690831515021790555060058201548160050155905050505050565b60003373ffffffffffffffffffffffffffffffffffffffff166001600084815260200190815260200160002060009054906101000a900473ffffffffffffffffffffffffffffffffffffffff1673ffffffffffffffffffffffffffffffffffffffff1614151561194757600080fd5b60008281548110151561195657fe5b90600052602060002090600602019050828160040160006101000a81548160ff0219169083151502179055508060008381548110151561199257fe5b906000526020600020906006020160008201548160000155600182018160010190805460018160011615610100020316600290046119d1929190611b67565b50600282018160020190805460018160011615610100020316600290046119f9929190611b67565b50600382015481600301556004820160009054906101000a900460ff168160040160006101000a81548160ff02191690831515021790555060058201548160050155905050505050565b60006064600a8302811515611a5457fe5b049050919050565b602060405190810160405280600081525090565b60c06040519081016040528060008152602001611a8b611bee565b8152602001611a98611bee565b815260200160008152602001600015158152602001600081525090565b815481835581811511611ae257600602816006028360005260206000209182019101611ae19190611c02565b5b505050565b828054600181600116156101000203166002900490600052602060002090601f016020900481019282601f10611b2857805160ff1916838001178555611b56565b82800160010185558215611b56579182015b82811115611b55578251825591602001919060010190611b3a565b5b509050611b639190611c6d565b5090565b828054600181600116156101000203166002900490600052602060002090601f016020900481019282601f10611ba05780548555611bdd565b82800160010185558215611bdd57600052602060002091601f016020900482015b82811115611bdc578254825591600101919060010190611bc1565b5b509050611bea9190611c6d565b5090565b602060405190810160405280600081525090565b611c6a91905b80821115611c6657600080820160009055600182016000611c299190611c92565b600282016000611c399190611c92565b60038201600090556004820160006101000a81549060ff0219169055600582016000905550600601611c08565b5090565b90565b611c8f91905b80821115611c8b576000816000905550600101611c73565b5090565b90565b50805460018160011615610100020316600290046000825580601f10611cb85750611cd7565b601f016020900490600052602060002090810190611cd69190611c6d565b5b505600a165627a7a7230582000f8d113058d87707b6666b2bbad42d84d771654aa2fab7119c81871aeb822b90029",
  "source": "pragma solidity ^0.4.18;\n\nimport \"./TittyOwnership.sol\";\n\ncontract TittyPurchase is TittyOwnership {\n\n    address private charity;\n    address private wallet;\n    address private boat;\n\n    function TittyPurchase(address _charity, address _wallet, address _boat) public {\n        charity = _charity;\n        wallet = _wallet;\n        boat = _boat;\n\n        createTitty(0, \"unissex\", 1000000000, address(0), \"genesis\");\n    }\n\n    function purchaseNew(uint256 _id, string _name, string _gender, uint256 _price) public payable {\n\n        if (msg.value == 0 && msg.value != _price)\n            revert();\n\n        uint256 boatFee = calculateBoatFee(msg.value);\n        createTitty(_id, _gender, _price, msg.sender, _name);\n        wallet.transfer(msg.value - boatFee);\n        boat.transfer(boatFee);\n\n    }\n\n    function purchaseExistent(uint256 _tittyId) public payable {\n\n        Titty storage titty = Titties[_tittyId];\n        uint256 fee = calculateFee(titty.price);\n        if (msg.value == 0 && msg.value != titty.price)\n            revert();\n        \n        uint256 val = msg.value - fee;\n        address owner = tittyIndexToOwner[_tittyId];\n        _approve(_tittyId, msg.sender);\n        transferFrom(owner, msg.sender, _tittyId);\n        owner.transfer(val);\n        wallet.transfer(fee);\n\n    }\n\n    function getAmountOfTitties() public view returns(uint) {\n        return Titties.length;\n    }\n\n    function getLatestId() public view returns (uint) {\n        return Titties.length - 1;\n    }\n\n    function getTittyByWpId(address _owner, uint256 _wpId) public view returns (bool own, uint256 tittyId) {\n        \n        for (uint256 i = 1; i<=totalSupply(); i++) {\n            Titty storage titty = Titties[i];\n            bool isOwner = _isOwner(_owner, i);\n            if (titty.id == _wpId && isOwner) {\n                return (true, i);\n            }\n        }\n        \n        return (false, 0);\n    }\n\n    function belongsTo(address _account, uint256 _tittyId) public view returns (bool) {\n        return _isOwner(_account, _tittyId);\n    }\n\n    function like(uint256 _tittyId, uint256 _amount) public payable {\n\n        if (msg.value < 0)\n            revert();\n\n        uint256 fee = calculateCharityFee(msg.value);\n        charity.transfer(fee);\n        wallet.transfer(msg.value - fee);\n        _likeTitty(_tittyId, _amount);\n\n    }\n\n    function changePrice(uint256 _price, uint256 _tittyId) public {\n        _changeTittyPrice(_price, _tittyId);\n    }\n\n    function makeItSellable(uint256 _tittyId) public {\n        _setTittyForSale(true, _tittyId);\n    }\n\n    function calculateFee (uint256 _price) internal pure returns(uint) {\n        return (_price * 10)/100;\n    }\n\n    function calculateCharityFee (uint256 _price) internal pure returns(uint) {\n        return (_price * 70)/100;\n    }\n\n    function calculateBoatFee (uint256 _price) internal pure returns(uint) {\n        return (_price * 25)/100;\n    }\n\n    function() external {}\n\n    function getATitty(uint256 _tittyId)\n        public \n        view \n        returns (\n        uint256 id,\n        string name,\n        string gender,\n        uint256 price,\n        bool forSale,\n        uint256 likes\n\n        ) {\n\n            Titty storage titty = Titties[_tittyId];\n            id = titty.id;\n            name = titty.name;\n            gender = titty.gender;\n            price = titty.price;\n            forSale = titty.forSale;\n            likes = titty.likes;\n\n        }\n\n}",
  "sourcePath": "/Users/rogerssampaio/Sites/cryptotitties/contracts/TittyPurchase.sol",
  "compiler": {
    "name": "solc",
    "version": "0.4.18+commit.9cf6e910.Emscripten.clang"
  },
  "schemaVersion": "1.0.1",
  "updatedAt": "2017-12-22T18:26:12.803Z"
}