{
  "contractName": "TittyBase",
  "abi": [
    {
      "constant": true,
      "inputs": [
        {
          "name": "",
          "type": "uint256"
        }
      ],
      "name": "tittyIndexToOwner",
      "outputs": [
        {
          "name": "",
          "type": "address"
        }
      ],
      "payable": false,
      "stateMutability": "view",
      "type": "function"
    },
    {
      "constant": true,
      "inputs": [
        {
          "name": "_tittyId",
          "type": "uint256"
        },
        {
          "name": "_aId",
          "type": "uint256"
        }
      ],
      "name": "getAccessory",
      "outputs": [
        {
          "name": "id",
          "type": "uint256"
        },
        {
          "name": "name",
          "type": "string"
        },
        {
          "name": "price",
          "type": "uint256"
        },
        {
          "name": "active",
          "type": "bool"
        }
      ],
      "payable": false,
      "stateMutability": "view",
      "type": "function"
    },
    {
      "constant": true,
      "inputs": [
        {
          "name": "",
          "type": "uint256"
        }
      ],
      "name": "tittyApproveIndex",
      "outputs": [
        {
          "name": "",
          "type": "address"
        }
      ],
      "payable": false,
      "stateMutability": "view",
      "type": "function"
    },
    {
      "constant": true,
      "inputs": [
        {
          "name": "_tittyId",
          "type": "uint256"
        }
      ],
      "name": "totalAccessories",
      "outputs": [
        {
          "name": "",
          "type": "uint256"
        }
      ],
      "payable": false,
      "stateMutability": "view",
      "type": "function"
    },
    {
      "constant": true,
      "inputs": [
        {
          "name": "",
          "type": "address"
        }
      ],
      "name": "ownerTittiesCount",
      "outputs": [
        {
          "name": "",
          "type": "uint256"
        }
      ],
      "payable": false,
      "stateMutability": "view",
      "type": "function"
    },
    {
      "anonymous": false,
      "inputs": [
        {
          "indexed": true,
          "name": "from",
          "type": "address"
        },
        {
          "indexed": true,
          "name": "to",
          "type": "address"
        }
      ],
      "name": "Transfer",
      "type": "event"
    },
    {
      "anonymous": false,
      "inputs": [
        {
          "indexed": true,
          "name": "from",
          "type": "address"
        },
        {
          "indexed": false,
          "name": "tittyId",
          "type": "uint256"
        },
        {
          "indexed": false,
          "name": "wpId",
          "type": "uint256"
        }
      ],
      "name": "Creation",
      "type": "event"
    },
    {
      "anonymous": false,
      "inputs": [
        {
          "indexed": false,
          "name": "tittyId",
          "type": "uint256"
        },
        {
          "indexed": false,
          "name": "accessoryId",
          "type": "uint256"
        }
      ],
      "name": "AddAccessory",
      "type": "event"
    }
  ],
  "bytecode": "0x6060604052341561000f57600080fd5b6104a58061001e6000396000f30060606040526004361061006d576000357c0100000000000000000000000000000000000000000000000000000000900463ffffffff16806339687870146100725780634a6cfca7146100d55780636c5eb382146101935780637465df26146101f6578063974324651461022d575b600080fd5b341561007d57600080fd5b610093600480803590602001909190505061027a565b604051808273ffffffffffffffffffffffffffffffffffffffff1673ffffffffffffffffffffffffffffffffffffffff16815260200191505060405180910390f35b34156100e057600080fd5b6100ff60048080359060200190919080359060200190919050506102ad565b604051808581526020018060200184815260200183151515158152602001828103825285818151815260200191508051906020019080838360005b8381101561015557808201518184015260208101905061013a565b50505050905090810190601f1680156101825780820380516001836020036101000a031916815260200191505b509550505050505060405180910390f35b341561019e57600080fd5b6101b460048080359060200190919050506103e8565b604051808273ffffffffffffffffffffffffffffffffffffffff1673ffffffffffffffffffffffffffffffffffffffff16815260200191505060405180910390f35b341561020157600080fd5b610217600480803590602001909190505061041b565b6040518082815260200191505060405180910390f35b341561023857600080fd5b610264600480803573ffffffffffffffffffffffffffffffffffffffff1690602001909190505061044d565b6040518082815260200191505060405180910390f35b60026020528060005260406000206000915054906101000a900473ffffffffffffffffffffffffffffffffffffffff1681565b60006102b7610465565b600080600080600080898154811015156102cd57fe5b9060005260206000209060070201925082600501888154811015156102ee57fe5b906000526020600020900154915060018281548110151561030b57fe5b9060005260206000209060040201905080600001549650806001018054600181600116156101000203166002900480601f0160208091040260200160405190810160405280929190818152602001828054600181600116156101000203166002900480156103ba5780601f1061038f576101008083540402835291602001916103ba565b820191906000526020600020905b81548152906001019060200180831161039d57829003601f168201915b50505050509550806002015494508060030160009054906101000a900460ff16935050505092959194509250565b60046020528060005260406000206000915054906101000a900473ffffffffffffffffffffffffffffffffffffffff1681565b60008060008381548110151561042d57fe5b906000526020600020906007020190508060050180549050915050919050565b60036020528060005260406000206000915090505481565b6020604051908101604052806000815250905600a165627a7a72305820d72bdfb5400588185c8b41a67bc2d027ca1a587c738073eb33880f30b743245b0029",
  "source": "pragma solidity ^0.4.18;\n\ncontract TittyBase {\n\n    event Transfer(address indexed from, address indexed to);\n    event Creation(address indexed from, uint256 tittyId, uint256 wpId);\n    event AddAccessory(uint256 tittyId, uint256 accessoryId);\n\n    struct Accessory {\n\n        uint256 id;\n        string name;\n        uint256 price;\n        bool isActive;\n\n    }\n\n    struct Titty {\n\n        uint256 id;\n        string name;\n        string gender;\n        uint256 originalPrice;\n        uint256 salePrice;\n        uint256[] accessories;\n        bool forSale;\n    }\n\n    //Storage\n    Titty[] Titties;\n    Accessory[] Accessories;\n    mapping (uint256 => address) public tittyIndexToOwner;\n    mapping (address => uint256) public ownerTittiesCount;\n    mapping (uint256 => address) public tittyApproveIndex;\n\n    function _transfer(address _from, address _to, uint256 _tittyId) internal {\n\n        ownerTittiesCount[_to]++;\n\n        tittyIndexToOwner[_tittyId] = _to;\n        if (_from != address(0)) {\n            ownerTittiesCount[_from]--;\n            delete tittyApproveIndex[_tittyId];\n        }\n\n        Transfer(_from, _to);\n\n    }\n\n    function _changeTittyPrice (uint256 _newPrice, uint256 _tittyId) internal {\n\n        require(tittyIndexToOwner[_tittyId] == msg.sender);\n        Titty storage _titty = Titties[_tittyId];\n        _titty.salePrice = _newPrice;\n\n        Titties[_tittyId] = _titty;\n    }\n\n    function _setTittyForSale (bool _forSale, uint256 _tittyId) internal {\n\n        require(tittyIndexToOwner[_tittyId] == msg.sender);\n        Titty storage _titty = Titties[_tittyId];\n        _titty.forSale = _forSale;\n\n        Titties[_tittyId] = _titty;\n    }\n\n    function _changeName (string _name, uint256 _tittyId) internal {\n\n        require(tittyIndexToOwner[_tittyId] == msg.sender);\n        Titty storage _titty = Titties[_tittyId];\n        _titty.name = _name;\n\n        Titties[_tittyId] = _titty;\n    }\n\n    function addAccessory (uint256 _id, string _name, uint256 _price, uint256 tittyId ) internal returns (uint) {\n\n        Accessory memory _accessory = Accessory({\n\n            id: _id,\n            name: _name,\n            price: _price,\n            isActive: true\n\n        });\n\n        Titty storage titty = Titties[tittyId];\n        uint256 newAccessoryId = Accessories.push(_accessory) - 1;\n        titty.accessories.push(newAccessoryId);\n        AddAccessory(tittyId, newAccessoryId);\n\n        return newAccessoryId;\n\n    }\n\n    function totalAccessories(uint256 _tittyId) public view returns (uint256) {\n\n        Titty storage titty = Titties[_tittyId];\n        return titty.accessories.length;\n\n    }\n\n    function getAccessory(uint256 _tittyId, uint256 _aId) public view returns (uint256 id, string name,  uint256 price, bool active) {\n\n        Titty storage titty = Titties[_tittyId];\n        uint256 accId = titty.accessories[_aId];\n        Accessory storage accessory = Accessories[accId];\n        id = accessory.id;\n        name = accessory.name;\n        price = accessory.price;\n        active = accessory.isActive;\n\n    }\n\n    function createTitty (uint256 _id, string _gender, uint256 _price, address _owner, string _name) internal returns (uint) {\n        \n        Titty memory _titty = Titty({\n            id: _id,\n            name: _name,\n            gender: _gender,\n            originalPrice: _price,\n            salePrice: _price,\n            accessories: new uint256[](0),\n            forSale: false\n        });\n\n        uint256 newTittyId = Titties.push(_titty) - 1;\n\n        Creation(\n            _owner,\n            newTittyId,\n            _id\n        );\n\n        _transfer(0, _owner, newTittyId);\n        return newTittyId;\n    }\n\n    \n\n}",
  "sourcePath": "/Users/rogerssampaio/Sites/cryptotitties/contracts/TittyBase.sol",
  "compiler": {
    "name": "solc",
    "version": "0.4.18+commit.9cf6e910.Emscripten.clang"
  },
  "schemaVersion": "1.0.1",
  "updatedAt": "2018-03-09T13:18:34.461Z"
}