{
  "contractName": "TittyBase",
  "abi": [
    {
      "constant": true,
      "inputs": [
        {
          "name": "",
          "type": "uint256"
        }
      ],
      "name": "tittyIndexToOwner",
      "outputs": [
        {
          "name": "",
          "type": "address"
        }
      ],
      "payable": false,
      "stateMutability": "view",
      "type": "function"
    },
    {
      "constant": true,
      "inputs": [
        {
          "name": "",
          "type": "uint256"
        }
      ],
      "name": "tittyApproveIndex",
      "outputs": [
        {
          "name": "",
          "type": "address"
        }
      ],
      "payable": false,
      "stateMutability": "view",
      "type": "function"
    },
    {
      "constant": true,
      "inputs": [
        {
          "name": "",
          "type": "address"
        }
      ],
      "name": "ownerTittiesCount",
      "outputs": [
        {
          "name": "",
          "type": "uint256"
        }
      ],
      "payable": false,
      "stateMutability": "view",
      "type": "function"
    },
    {
      "anonymous": false,
      "inputs": [
        {
          "indexed": true,
          "name": "from",
          "type": "address"
        },
        {
          "indexed": true,
          "name": "to",
          "type": "address"
        }
      ],
      "name": "Transfer",
      "type": "event"
    },
    {
      "anonymous": false,
      "inputs": [
        {
          "indexed": true,
          "name": "from",
          "type": "address"
        },
        {
          "indexed": false,
          "name": "tittyId",
          "type": "uint256"
        }
      ],
      "name": "Creation",
      "type": "event"
    }
  ],
  "bytecode": "0x6060604052341561000f57600080fd5b6102198061001e6000396000f300606060405260043610610057576000357c0100000000000000000000000000000000000000000000000000000000900463ffffffff168063396878701461005c5780636c5eb382146100bf5780639743246514610122575b600080fd5b341561006757600080fd5b61007d600480803590602001909190505061016f565b604051808273ffffffffffffffffffffffffffffffffffffffff1673ffffffffffffffffffffffffffffffffffffffff16815260200191505060405180910390f35b34156100ca57600080fd5b6100e060048080359060200190919050506101a2565b604051808273ffffffffffffffffffffffffffffffffffffffff1673ffffffffffffffffffffffffffffffffffffffff16815260200191505060405180910390f35b341561012d57600080fd5b610159600480803573ffffffffffffffffffffffffffffffffffffffff169060200190919050506101d5565b6040518082815260200191505060405180910390f35b60016020528060005260406000206000915054906101000a900473ffffffffffffffffffffffffffffffffffffffff1681565b60036020528060005260406000206000915054906101000a900473ffffffffffffffffffffffffffffffffffffffff1681565b600260205280600052604060002060009150905054815600a165627a7a723058204420c2aecbb673800d768a24497ad519fc10bee6114aafd07b75d2eec82feb520029",
  "source": "pragma solidity ^0.4.18;\n\ncontract TittyBase {\n\n    event Transfer(address indexed from, address indexed to);\n    event Creation(address indexed from, uint256 tittyId);\n\n    struct Titty {\n\n        uint32 id;\n        string name;\n        string gender;\n        uint256 price;\n        bool forSale;\n        uint256 likes;\n\n    }\n\n    //Storage\n    Titty[] Titties;\n    mapping (uint256 => address) public tittyIndexToOwner;\n    mapping (address => uint256) public ownerTittiesCount;\n    mapping (uint256 => address) public tittyApproveIndex;\n\n    function _transfer(address _from, address _to, uint256 _tittyId) internal {\n\n        ownerTittiesCount[_to]++;\n\n        tittyIndexToOwner[_tittyId] = _to;\n        if (_from != address(0)) {\n            ownerTittiesCount[_from]--;\n            delete tittyApproveIndex[_tittyId];\n        }\n\n        Transfer(_from, _to);\n\n    }\n\n    function _changeTittyPrice (uint256 _newPrice, uint256 _tittyId) internal {\n\n        require(tittyIndexToOwner[_tittyId] == msg.sender);\n        Titty storage _titty = Titties[_tittyId];\n        _titty.price = _newPrice;\n\n        Titties[_tittyId] = _titty;\n    }\n\n    function _setTittyForSale (bool _forSale, uint256 _tittyId) internal {\n\n        require(tittyIndexToOwner[_tittyId] == msg.sender);\n        Titty storage _titty = Titties[_tittyId];\n        _titty.forSale = _forSale;\n\n        Titties[_tittyId] = _titty;\n    }\n\n    function _changeName (string _name, uint256 _tittyId) internal {\n\n        require(tittyIndexToOwner[_tittyId] == msg.sender);\n        Titty storage _titty = Titties[_tittyId];\n        _titty.name = _name;\n\n        Titties[_tittyId] = _titty;\n    }\n\n    function _likeTitty (uint256 _tittyId) internal {\n        \n        Titty storage _titty = Titties[_tittyId];\n        _titty.likes++;\n\n        Titties[_tittyId] = _titty;\n    }\n\n    function createTitty (uint32 _id, string _gender, uint256 _price, address _owner, string _name) internal returns (uint) {\n\n        Titty memory _titty = Titty({\n            id: _id,\n            name: _name,\n            gender: _gender,\n            price: _price,\n            forSale: false,\n            likes: 0\n        });\n\n        uint256 newTittyId = Titties.push(_titty) - 1;\n\n        Creation(\n            _owner,\n            newTittyId\n        );\n\n        _transfer(0, _owner, newTittyId);\n        return newTittyId;\n    }\n\n    \n\n}",
  "sourcePath": "/Users/rogerssampaio/Sites/cryptotitties/contracts/TittyBase.sol",
  "compiler": {
    "name": "solc",
    "version": "0.4.18+commit.9cf6e910.Emscripten.clang"
  },
  "schemaVersion": "1.0.1",
  "updatedAt": "2017-12-20T05:23:14.666Z"
}